{"contracts/PlebbitTippingV1.sol":{"PlebbitTippingV1":{"abi":[{"inputs":[{"internalType":"uint256","name":"_minimumTipAmount","type":"uint256"},{"internalType":"uint256","name":"_feePercent","type":"uint256"}],"stateMutability":"nonpayable","type":"constructor"},{"inputs":[],"name":"AccessControlBadConfirmation","type":"error"},{"inputs":[{"internalType":"address","name":"account","type":"address"},{"internalType":"bytes32","name":"neededRole","type":"bytes32"}],"name":"AccessControlUnauthorizedAccount","type":"error"},{"anonymous":false,"inputs":[{"indexed":true,"internalType":"bytes32","name":"role","type":"bytes32"},{"indexed":true,"internalType":"bytes32","name":"previousAdminRole","type":"bytes32"},{"indexed":true,"internalType":"bytes32","name":"newAdminRole","type":"bytes32"}],"name":"RoleAdminChanged","type":"event"},{"anonymous":false,"inputs":[{"indexed":true,"internalType":"bytes32","name":"role","type":"bytes32"},{"indexed":true,"internalType":"address","name":"account","type":"address"},{"indexed":true,"internalType":"address","name":"sender","type":"address"}],"name":"RoleGranted","type":"event"},{"anonymous":false,"inputs":[{"indexed":true,"internalType":"bytes32","name":"role","type":"bytes32"},{"indexed":true,"internalType":"address","name":"account","type":"address"},{"indexed":true,"internalType":"address","name":"sender","type":"address"}],"name":"RoleRevoked","type":"event"},{"anonymous":false,"inputs":[{"indexed":true,"internalType":"address","name":"sender","type":"address"},{"indexed":true,"internalType":"address","name":"recipient","type":"address"},{"indexed":false,"internalType":"uint256","name":"amount","type":"uint256"},{"indexed":true,"internalType":"address","name":"feeRecipient","type":"address"},{"indexed":false,"internalType":"bytes32","name":"recipientCommentCid","type":"bytes32"},{"indexed":false,"internalType":"bytes32","name":"senderCommentCid","type":"bytes32"}],"name":"Tip","type":"event"},{"inputs":[],"name":"DEFAULT_ADMIN_ROLE","outputs":[{"internalType":"bytes32","name":"","type":"bytes32"}],"stateMutability":"view","type":"function"},{"inputs":[],"name":"MODERATOR_ROLE","outputs":[{"internalType":"bytes32","name":"","type":"bytes32"}],"stateMutability":"view","type":"function"},{"inputs":[],"name":"feePercent","outputs":[{"internalType":"uint256","name":"","type":"uint256"}],"stateMutability":"view","type":"function"},{"inputs":[{"internalType":"bytes32","name":"role","type":"bytes32"}],"name":"getRoleAdmin","outputs":[{"internalType":"bytes32","name":"","type":"bytes32"}],"stateMutability":"view","type":"function"},{"inputs":[{"internalType":"bytes32","name":"senderCommentCid","type":"bytes32"},{"internalType":"address","name":"sender","type":"address"},{"internalType":"bytes32","name":"recipientCommentCid","type":"bytes32"},{"internalType":"address[]","name":"feeRecipients","type":"address[]"}],"name":"getSenderTipsTotalAmount","outputs":[{"internalType":"uint256","name":"","type":"uint256"}],"stateMutability":"view","type":"function"},{"inputs":[{"internalType":"bytes32","name":"senderCommentCid","type":"bytes32"},{"internalType":"address","name":"sender","type":"address"},{"internalType":"bytes32[]","name":"recipientCommentCids","type":"bytes32[]"},{"internalType":"address[][]","name":"feeRecipients","type":"address[][]"}],"name":"getSenderTipsTotalAmounts","outputs":[{"internalType":"uint256[]","name":"","type":"uint256[]"}],"stateMutability":"view","type":"function"},{"inputs":[{"internalType":"bytes32","name":"senderCommentCid","type":"bytes32"},{"internalType":"address","name":"sender","type":"address"},{"internalType":"bytes32[]","name":"recipientCommentCids","type":"bytes32[]"},{"internalType":"address[]","name":"feeRecipients","type":"address[]"}],"name":"getSenderTipsTotalAmountsSameFeeRecipients","outputs":[{"internalType":"uint256[]","name":"","type":"uint256[]"}],"stateMutability":"view","type":"function"},{"inputs":[{"internalType":"bytes32","name":"recipientCommentCid","type":"bytes32"},{"internalType":"address[]","name":"feeRecipients","type":"address[]"},{"internalType":"uint256","name":"offset","type":"uint256"},{"internalType":"uint256","name":"limit","type":"uint256"}],"name":"getTips","outputs":[{"components":[{"internalType":"uint96","name":"amount","type":"uint96"},{"internalType":"address","name":"feeRecipient","type":"address"},{"internalType":"address","name":"sender","type":"address"},{"internalType":"bytes32","name":"senderCommentCid","type":"bytes32"}],"internalType":"struct PlebbitTippingV1.TipData[]","name":"","type":"tuple[]"}],"stateMutability":"view","type":"function"},{"inputs":[{"internalType":"bytes32","name":"recipientCommentCid","type":"bytes32"},{"internalType":"address[]","name":"feeRecipients","type":"address[]"},{"internalType":"uint256","name":"offset","type":"uint256"},{"internalType":"uint256","name":"limit","type":"uint256"}],"name":"getTipsAmounts","outputs":[{"internalType":"uint256[]","name":"amounts","type":"uint256[]"}],"stateMutability":"view","type":"function"},{"inputs":[{"internalType":"bytes32","name":"recipientCommentCid","type":"bytes32"},{"internalType":"address[]","name":"feeRecipients","type":"address[]"}],"name":"getTipsTotalAmount","outputs":[{"internalType":"uint256","name":"","type":"uint256"}],"stateMutability":"view","type":"function"},{"inputs":[{"internalType":"bytes32[]","name":"recipientCommentCids","type":"bytes32[]"},{"internalType":"address[][]","name":"feeRecipients","type":"address[][]"}],"name":"getTipsTotalAmounts","outputs":[{"internalType":"uint256[]","name":"","type":"uint256[]"}],"stateMutability":"view","type":"function"},{"inputs":[{"internalType":"bytes32[]","name":"recipientCommentCids","type":"bytes32[]"},{"internalType":"address[]","name":"feeRecipients","type":"address[]"}],"name":"getTipsTotalAmountsSameFeeRecipients","outputs":[{"internalType":"uint256[]","name":"","type":"uint256[]"}],"stateMutability":"view","type":"function"},{"inputs":[{"internalType":"bytes32","name":"role","type":"bytes32"},{"internalType":"address","name":"account","type":"address"}],"name":"grantRole","outputs":[],"stateMutability":"nonpayable","type":"function"},{"inputs":[{"internalType":"bytes32","name":"role","type":"bytes32"},{"internalType":"address","name":"account","type":"address"}],"name":"hasRole","outputs":[{"internalType":"bool","name":"","type":"bool"}],"stateMutability":"view","type":"function"},{"inputs":[],"name":"minimumTipAmount","outputs":[{"internalType":"uint256","name":"","type":"uint256"}],"stateMutability":"view","type":"function"},{"inputs":[{"internalType":"bytes32","name":"role","type":"bytes32"},{"internalType":"address","name":"callerConfirmation","type":"address"}],"name":"renounceRole","outputs":[],"stateMutability":"nonpayable","type":"function"},{"inputs":[{"internalType":"bytes32","name":"role","type":"bytes32"},{"internalType":"address","name":"account","type":"address"}],"name":"revokeRole","outputs":[],"stateMutability":"nonpayable","type":"function"},{"inputs":[{"internalType":"bytes32","name":"","type":"bytes32"}],"name":"senderTipsTotalAmounts","outputs":[{"internalType":"uint256","name":"","type":"uint256"}],"stateMutability":"view","type":"function"},{"inputs":[{"internalType":"uint256","name":"_feePercent","type":"uint256"}],"name":"setFeePercent","outputs":[],"stateMutability":"nonpayable","type":"function"},{"inputs":[{"internalType":"uint256","name":"_minimumTipAmount","type":"uint256"}],"name":"setMinimumTipAmount","outputs":[],"stateMutability":"nonpayable","type":"function"},{"inputs":[{"internalType":"bytes4","name":"interfaceId","type":"bytes4"}],"name":"supportsInterface","outputs":[{"internalType":"bool","name":"","type":"bool"}],"stateMutability":"view","type":"function"},{"inputs":[{"internalType":"address","name":"recipient","type":"address"},{"internalType":"uint256","name":"amount","type":"uint256"},{"internalType":"address","name":"feeRecipient","type":"address"},{"internalType":"bytes32","name":"senderCommentCid","type":"bytes32"},{"internalType":"bytes32","name":"recipientCommentCid","type":"bytes32"}],"name":"tip","outputs":[],"stateMutability":"payable","type":"function"},{"inputs":[{"internalType":"bytes32","name":"","type":"bytes32"},{"internalType":"uint256","name":"","type":"uint256"}],"name":"tips","outputs":[{"internalType":"uint96","name":"amount","type":"uint96"},{"internalType":"address","name":"feeRecipient","type":"address"},{"internalType":"address","name":"sender","type":"address"},{"internalType":"bytes32","name":"senderCommentCid","type":"bytes32"}],"stateMutability":"view","type":"function"},{"inputs":[{"internalType":"bytes32","name":"","type":"bytes32"}],"name":"tipsTotalAmounts","outputs":[{"internalType":"uint256","name":"","type":"uint256"}],"stateMutability":"view","type":"function"}],"devdoc":{"details":"Uses AccessControl for moderator/admin permissions.","errors":{"AccessControlBadConfirmation()":[{"details":"The caller of a function is not the expected one. NOTE: Don't confuse with {AccessControlUnauthorizedAccount}."}],"AccessControlUnauthorizedAccount(address,bytes32)":[{"details":"The `account` is missing a role."}]},"events":{"RoleAdminChanged(bytes32,bytes32,bytes32)":{"details":"Emitted when `newAdminRole` is set as ``role``'s admin role, replacing `previousAdminRole` `DEFAULT_ADMIN_ROLE` is the starting admin for all roles, despite {RoleAdminChanged} not being emitted to signal this."},"RoleGranted(bytes32,address,address)":{"details":"Emitted when `account` is granted `role`. `sender` is the account that originated the contract call. This account bears the admin role (for the granted role). Expected in cases where the role was granted using the internal {AccessControl-_grantRole}."},"RoleRevoked(bytes32,address,address)":{"details":"Emitted when `account` is revoked `role`. `sender` is the account that originated the contract call:   - if using `revokeRole`, it is the admin role bearer   - if using `renounceRole`, it is the role bearer (i.e. `account`)"},"Tip(address,address,uint256,address,bytes32,bytes32)":{"params":{"amount":"The total amount tipped.","feeRecipient":"The address receiving the fee.","recipient":"The address receiving the tip.","recipientCommentCid":"The comment CID of the recipient.","sender":"The address sending the tip.","senderCommentCid":"The comment CID of the sender (0x0 if none)."}}},"kind":"dev","methods":{"constructor":{"params":{"_feePercent":"The fee percentage (between 1 and 20).","_minimumTipAmount":"The minimum tip amount (in wei)."}},"getRoleAdmin(bytes32)":{"details":"Returns the admin role that controls `role`. See {grantRole} and {revokeRole}. To change a role's admin, use {_setRoleAdmin}."},"getSenderTipsTotalAmount(bytes32,address,bytes32,address[])":{"params":{"feeRecipients":"The list of fee recipient addresses.","recipientCommentCid":"The comment CID of the recipient.","sender":"The address of the tip sender.","senderCommentCid":"The comment CID from the sender (0x0 if none)."},"returns":{"_0":"total The total amount tipped by the sender for these parameters."}},"getSenderTipsTotalAmounts(bytes32,address,bytes32[],address[][])":{"params":{"feeRecipients":"Array of arrays of fee recipient addresses.","recipientCommentCids":"Array of recipient comment CIDs.","sender":"The address of the tip sender.","senderCommentCid":"The comment CID from the sender (0x0 if none)."},"returns":{"_0":"totals Array of total amounts for each recipient comment."}},"getSenderTipsTotalAmountsSameFeeRecipients(bytes32,address,bytes32[],address[])":{"params":{"feeRecipients":"Array of fee recipient addresses.","recipientCommentCids":"Array of recipient comment CIDs.","sender":"The address of the tip sender.","senderCommentCid":"The comment CID from the sender (0x0 if none)."},"returns":{"_0":"totals Array of total amounts for each recipient comment."}},"getTips(bytes32,address[],uint256,uint256)":{"params":{"feeRecipients":"The list of fee recipient addresses.","limit":"The maximum number of results to return.","offset":"The starting index for pagination.","recipientCommentCid":"The comment CID of the recipient."},"returns":{"_0":"result Array of TipData structs."}},"getTipsAmounts(bytes32,address[],uint256,uint256)":{"params":{"feeRecipients":"The list of fee recipient addresses.","limit":"The maximum number of results to return.","offset":"The starting index for pagination.","recipientCommentCid":"The comment CID of the recipient."},"returns":{"amounts":"Array of tip amounts."}},"getTipsTotalAmount(bytes32,address[])":{"params":{"feeRecipients":"The list of fee recipient addresses.","recipientCommentCid":"The comment CID of the recipient."},"returns":{"_0":"total The total amount tipped for the given parameters."}},"getTipsTotalAmounts(bytes32[],address[][])":{"params":{"feeRecipients":"Array of arrays of fee recipient addresses.","recipientCommentCids":"Array of recipient comment CIDs."},"returns":{"_0":"totals Array of total amounts for each recipient comment."}},"getTipsTotalAmountsSameFeeRecipients(bytes32[],address[])":{"params":{"feeRecipients":"Array of fee recipient addresses.","recipientCommentCids":"Array of recipient comment CIDs."},"returns":{"_0":"totals Array of total amounts for each recipient comment."}},"grantRole(bytes32,address)":{"details":"Grants `role` to `account`. If `account` had not been already granted `role`, emits a {RoleGranted} event. Requirements: - the caller must have ``role``'s admin role. May emit a {RoleGranted} event."},"hasRole(bytes32,address)":{"details":"Returns `true` if `account` has been granted `role`."},"renounceRole(bytes32,address)":{"details":"Revokes `role` from the calling account. Roles are often managed via {grantRole} and {revokeRole}: this function's purpose is to provide a mechanism for accounts to lose their privileges if they are compromised (such as when a trusted device is misplaced). If the calling account had been revoked `role`, emits a {RoleRevoked} event. Requirements: - the caller must be `callerConfirmation`. May emit a {RoleRevoked} event."},"revokeRole(bytes32,address)":{"details":"Revokes `role` from `account`. If `account` had been granted `role`, emits a {RoleRevoked} event. Requirements: - the caller must have ``role``'s admin role. May emit a {RoleRevoked} event."},"setFeePercent(uint256)":{"details":"Only callable by accounts with MODERATOR_ROLE. Must be between 1 and 20.","params":{"_feePercent":"The new fee percentage."}},"setMinimumTipAmount(uint256)":{"details":"Only callable by accounts with MODERATOR_ROLE.","params":{"_minimumTipAmount":"The new minimum tip amount (in wei)."}},"supportsInterface(bytes4)":{"details":"Returns true if this contract implements the interface defined by `interfaceId`. See the corresponding https://eips.ethereum.org/EIPS/eip-165#how-interfaces-are-identified[ERC section] to learn more about how these ids are created. This function call must use less than 30 000 gas."},"tip(address,uint256,address,bytes32,bytes32)":{"details":"The tip is tracked by both recipient and sender comment CIDs.","params":{"amount":"The total amount to tip (must match msg.value).","feeRecipient":"The address to receive the fee.","recipient":"The address to receive the tip.","recipientCommentCid":"The comment CID of the recipient.","senderCommentCid":"Optional comment CID from the sender (0x0 if none)."}}},"title":"PlebbitTippingV1","version":1},"evm":{"bytecode":{"linkReferences":{},"object":"60806040523480156200001157600080fd5b5060405162001ecd38038062001ecd833981016040819052620000349162000103565b600482905560058190556200004b60003362000054565b50505062000128565b6000828152602081815260408083206001600160a01b038516845290915281205460ff16620000f9576000838152602081815260408083206001600160a01b03861684529091529020805460ff19166001179055620000b03390565b6001600160a01b0316826001600160a01b0316847f2f8788117e7eff1d82e926ec794901d17c78024a50270940304540a733656f0d60405160405180910390a4506001620000fd565b5060005b92915050565b600080604083850312156200011757600080fd5b505080516020909101519092909150565b611d9580620001386000396000f3fe60806040526004361061014b5760003560e01c80637bcdfa7a116100b6578063b3289b171161006f578063b3289b171461040b578063b73adf901461042b578063d3c4e4df1461044b578063d547741f1461046b578063d9e4e44f1461048b578063e49de283146104ab57600080fd5b80637bcdfa7a1461031c5780637ce3489b146103735780637fd6f15c1461039357806391d0e383146103a957806391d14854146103d6578063a217fddf146103f657600080fd5b806344f14eb61161010857806344f14eb6146102485780634714516f1461025b578063513c038f146102885780636ebb2c99146102a8578063797669c9146102c85780637ae31498146102fc57600080fd5b806301ffc9a71461015057806307c01bf214610185578063248a9ca3146101b25780632a49d418146101f05780632f2ff15d1461020657806336568abe14610228575b600080fd5b34801561015c57600080fd5b5061017061016b3660046117ed565b6104d8565b60405190151581526020015b60405180910390f35b34801561019157600080fd5b506101a56101a0366004611869565b61050f565b60405161017c91906118c6565b3480156101be57600080fd5b506101e26101cd36600461190a565b60009081526020819052604090206001015490565b60405190815260200161017c565b3480156101fc57600080fd5b506101e260045481565b34801561021257600080fd5b5061022661022136600461193f565b610760565b005b34801561023457600080fd5b5061022661024336600461193f565b61078b565b61022661025636600461196b565b6107c3565b34801561026757600080fd5b506101e261027636600461190a565b60026020526000908152604090205481565b34801561029457600080fd5b506101a56102a33660046119b9565b610b14565b3480156102b457600080fd5b506101e26102c3366004611a24565b610cda565b3480156102d457600080fd5b506101e27f71f3d55856e4058ed06ee057d79ada615f65cdf5f9ee88181b914225088f834f81565b34801561030857600080fd5b5061022661031736600461190a565b610d73565b34801561032857600080fd5b5061033c610337366004611a6f565b610da3565b604080516001600160601b039590951685526001600160a01b0393841660208601529190921690830152606082015260800161017c565b34801561037f57600080fd5b5061022661038e36600461190a565b610e02565b34801561039f57600080fd5b506101e260055481565b3480156103b557600080fd5b506103c96103c4366004611869565b610e9c565b60405161017c9190611a91565b3480156103e257600080fd5b506101706103f136600461193f565b61118f565b34801561040257600080fd5b506101e2600081565b34801561041757600080fd5b506101a56104263660046119b9565b6111b8565b34801561043757600080fd5b506101a5610446366004611b0a565b6112e5565b34801561045757600080fd5b506101e2610466366004611b93565b6114b1565b34801561047757600080fd5b5061022661048636600461193f565b611550565b34801561049757600080fd5b506101a56104a6366004611b0a565b611575565b3480156104b757600080fd5b506101e26104c636600461190a565b60036020526000908152604090205481565b60006001600160e01b03198216637965db0b60e01b148061050957506301ffc9a760e01b6001600160e01b03198316145b92915050565b60606000805b858110156105a05760008888888481811061053257610532611bfa565b90506020020160208101906105479190611c10565b604051602001610558929190611c2b565b60408051601f1981840301815291815281516020928301206000818152600190935291205490915061058a9084611c61565b925050808061059890611c74565b915050610515565b508084106105c35760408051600080825260208201909252905b50915050610757565b82816105cf8287611c61565b11156105e2576105df8583611ca3565b90505b806001600160401b038111156105fa576105fa611c8d565b604051908082528060200260200182016040528015610623578160200160208202803683370190505b50925060008060005b888110801561063a57508382105b156107515760008b8b8b8481811061065457610654611bfa565b90506020020160208101906106699190611c10565b60405160200161067a929190611c2b565b60408051601f19818403018152918152815160209283012060008181526001909352908220909250905b8154811080156106b357508685105b1561073b578a861061071b578181815481106106d1576106d1611bfa565b600091825260209091206003909102015489516001600160601b03909116908a908790811061070257610702611bfa565b60209081029190910101528461071781611c74565b9550505b8561072581611c74565b965050808061073390611c74565b9150506106a4565b505050808061074990611c74565b91505061062c565b50505050505b95945050505050565b60008281526020819052604090206001015461077b816116a6565b61078583836116b3565b50505050565b6001600160a01b03811633146107b45760405163334bd91960e11b815260040160405180910390fd5b6107be8282611745565b505050565b6004543410156108125760405162461bcd60e51b815260206004820152601560248201527454697020616d6f756e7420697320746f6f206c6f7760581b60448201526064015b60405180910390fd5b8334146108615760405162461bcd60e51b815260206004820152601f60248201527f53656e742076616c756520646f65736e2774206d6174636820616d6f756e74006044820152606401610809565b60006064600554866108739190611cb6565b61087d9190611ccd565b9050600061088b8287611ca3565b6040519091506001600160a01b0386169083156108fc029084906000818181858888f193505050501580156108c4573d6000803e3d6000fd5b506040516001600160a01b0388169082156108fc029083906000818181858888f193505050501580156108fb573d6000803e3d6000fd5b5060008386604051602001610911929190611c2b565b604051602081830303815290604052805190602001209050600160008281526020019081526020016000206040518060800160405280896001600160601b03168152602001886001600160a01b03168152602001336001600160a01b0316815260200187815250908060018154018082558091505060019003906000526020600020906003020160009091909190915060008201518160000160006101000a8154816001600160601b0302191690836001600160601b03160217905550602082015181600001600c6101000a8154816001600160a01b0302191690836001600160a01b0316021790555060408201518160010160006101000a8154816001600160a01b0302191690836001600160a01b0316021790555060608201518160020155505086600260008381526020019081526020016000206000828254610a579190611c61565b9091555050604051600090610a76908790339088908b90602001611cef565b60405160208183030381529060405280519060200120905087600360008381526020019081526020016000206000828254610ab19190611c61565b909155505060408051898152602081018790529081018790526001600160a01b0380891691908b169033907f5cdb0f7813a64a2caf6aa7559b9945cf37cef9897be2aed5e0edad7ae4fdab019060600160405180910390a4505050505050505050565b6060838214610b5e5760405162461bcd60e51b8152602060048201526016602482015275082e4e4c2f2e640d8cadccee8d040dad2e6dac2e8c6d60531b6044820152606401610809565b6000846001600160401b03811115610b7857610b78611c8d565b604051908082528060200260200182016040528015610ba1578160200160208202803683370190505b50905060005b85811015610cd05760005b858583818110610bc457610bc4611bfa565b9050602002810190610bd69190611d16565b9050811015610cbd576000888884818110610bf357610bf3611bfa565b90506020020135878785818110610c0c57610c0c611bfa565b9050602002810190610c1e9190611d16565b84818110610c2e57610c2e611bfa565b9050602002016020810190610c439190611c10565b604051602001610c54929190611c2b565b6040516020818303038152906040528051906020012090506002600082815260200190815260200160002054848481518110610c9257610c92611bfa565b60200260200101818151610ca69190611c61565b905250819050610cb581611c74565b915050610bb2565b5080610cc881611c74565b915050610ba7565b5095945050505050565b600080805b83811015610d6a57600086868684818110610cfc57610cfc611bfa565b9050602002016020810190610d119190611c10565b604051602001610d22929190611c2b565b60408051601f19818403018152918152815160209283012060008181526002909352912054909150610d549084611c61565b9250508080610d6290611c74565b915050610cdf565b50949350505050565b7f71f3d55856e4058ed06ee057d79ada615f65cdf5f9ee88181b914225088f834f610d9d816116a6565b50600455565b60016020528160005260406000208181548110610dbf57600080fd5b60009182526020909120600390910201805460018201546002909201546001600160601b03821694506001600160a01b03600160601b9092048216935091169084565b7f71f3d55856e4058ed06ee057d79ada615f65cdf5f9ee88181b914225088f834f610e2c816116a6565b60018210158015610e3e575060148211155b610e965760405162461bcd60e51b8152602060048201526024808201527f4665652070657263656e74206d757374206265206265747765656e203120616e6044820152630642032360e41b6064820152608401610809565b50600555565b60606000805b85811015610f2d57600088888884818110610ebf57610ebf611bfa565b9050602002016020810190610ed49190611c10565b604051602001610ee5929190611c2b565b60408051601f19818403018152918152815160209283012060008181526001909352912054909150610f179084611c61565b9250508080610f2590611c74565b915050610ea2565b50808410610f875760408051600080825260208201909252906105ba565b604080516080810182526000808252602080830182905292820181905260608201528252600019909201910181610f4b57905050915050610757565b8281610f938287611c61565b1115610fa657610fa38583611ca3565b90505b6000816001600160401b03811115610fc057610fc0611c8d565b60405190808252806020026020018201604052801561101257816020015b604080516080810182526000808252602080830182905292820181905260608201528252600019909201910181610fde5790505b50905060008060005b898110801561102957508482105b1561117f5760008c8c8c8481811061104357611043611bfa565b90506020020160208101906110589190611c10565b604051602001611069929190611c2b565b60408051601f19818403018152918152815160209283012060008181526001909352908220909250905b8154811080156110a257508785105b15611169578b8610611149578181815481106110c0576110c0611bfa565b600091825260209182902060408051608081018252600390930290910180546001600160601b03811684526001600160a01b03600160601b9091048116948401949094526001810154909316908201526002909101546060820152875188908790811061112f5761112f611bfa565b6020026020010181905250848061114590611c74565b9550505b8561115381611c74565b965050808061116190611c74565b915050611093565b505050808061117790611c74565b91505061101b565b50919a9950505050505050505050565b6000918252602082815260408084206001600160a01b0393909316845291905290205460ff1690565b60606000846001600160401b038111156111d4576111d4611c8d565b6040519080825280602002602001820160405280156111fd578160200160208202803683370190505b50905060005b85811015610cd05760005b848110156112d257600088888481811061122a5761122a611bfa565b9050602002013587878481811061124357611243611bfa565b90506020020160208101906112589190611c10565b604051602001611269929190611c2b565b60405160208183030381529060405280519060200120905060026000828152602001908152602001600020548484815181106112a7576112a7611bfa565b602002602001018181516112bb9190611c61565b9052508190506112ca81611c74565b91505061120e565b50806112dd81611c74565b915050611203565b606083821461132f5760405162461bcd60e51b8152602060048201526016602482015275082e4e4c2f2e640d8cadccee8d040dad2e6dac2e8c6d60531b6044820152606401610809565b6000846001600160401b0381111561134957611349611c8d565b604051908082528060200260200182016040528015611372578160200160208202803683370190505b50905060005b858110156114a55760005b85858381811061139557611395611bfa565b90506020028101906113a79190611d16565b90508110156114925760008a8a8a8a868181106113c6576113c6611bfa565b905060200201358989878181106113df576113df611bfa565b90506020028101906113f19190611d16565b8681811061140157611401611bfa565b90506020020160208101906114169190611c10565b6040516020016114299493929190611cef565b604051602081830303815290604052805190602001209050600360008281526020019081526020016000205484848151811061146757611467611bfa565b6020026020010181815161147b9190611c61565b90525081905061148a81611c74565b915050611383565b508061149d81611c74565b915050611378565b50979650505050505050565b600080805b838110156115455760008888888888868181106114d5576114d5611bfa565b90506020020160208101906114ea9190611c10565b6040516020016114fd9493929190611cef565b60408051601f1981840301815291815281516020928301206000818152600390935291205490915061152f9084611c61565b925050808061153d90611c74565b9150506114b6565b509695505050505050565b60008281526020819052604090206001015461156b816116a6565b6107858383611745565b60606000846001600160401b0381111561159157611591611c8d565b6040519080825280602002602001820160405280156115ba578160200160208202803683370190505b50905060005b858110156114a55760005b848110156116935760008a8a8a8a868181106115e9576115e9611bfa565b9050602002013589898681811061160257611602611bfa565b90506020020160208101906116179190611c10565b60405160200161162a9493929190611cef565b604051602081830303815290604052805190602001209050600360008281526020019081526020016000205484848151811061166857611668611bfa565b6020026020010181815161167c9190611c61565b90525081905061168b81611c74565b9150506115cb565b508061169e81611c74565b9150506115c0565b6116b081336117b0565b50565b60006116bf838361118f565b61173d576000838152602081815260408083206001600160a01b03861684529091529020805460ff191660011790556116f53390565b6001600160a01b0316826001600160a01b0316847f2f8788117e7eff1d82e926ec794901d17c78024a50270940304540a733656f0d60405160405180910390a4506001610509565b506000610509565b6000611751838361118f565b1561173d576000838152602081815260408083206001600160a01b0386168085529252808320805460ff1916905551339286917ff6391f5c32d9c69d2a47ea670b442974b53935d1edc7fd64eb21e047a839171b9190a4506001610509565b6117ba828261118f565b6117e95760405163e2517d3f60e01b81526001600160a01b038216600482015260248101839052604401610809565b5050565b6000602082840312156117ff57600080fd5b81356001600160e01b03198116811461181757600080fd5b9392505050565b60008083601f84011261183057600080fd5b5081356001600160401b0381111561184757600080fd5b6020830191508360208260051b850101111561186257600080fd5b9250929050565b60008060008060006080868803121561188157600080fd5b8535945060208601356001600160401b0381111561189e57600080fd5b6118aa8882890161181e565b9699909850959660408101359660609091013595509350505050565b6020808252825182820181905260009190848201906040850190845b818110156118fe578351835292840192918401916001016118e2565b50909695505050505050565b60006020828403121561191c57600080fd5b5035919050565b80356001600160a01b038116811461193a57600080fd5b919050565b6000806040838503121561195257600080fd5b8235915061196260208401611923565b90509250929050565b600080600080600060a0868803121561198357600080fd5b61198c86611923565b9450602086013593506119a160408701611923565b94979396509394606081013594506080013592915050565b600080600080604085870312156119cf57600080fd5b84356001600160401b03808211156119e657600080fd5b6119f28883890161181e565b90965094506020870135915080821115611a0b57600080fd5b50611a188782880161181e565b95989497509550505050565b600080600060408486031215611a3957600080fd5b8335925060208401356001600160401b03811115611a5657600080fd5b611a628682870161181e565b9497909650939450505050565b60008060408385031215611a8257600080fd5b50508035926020909101359150565b602080825282518282018190526000919060409081850190868401855b82811015611afd57815180516001600160601b03168552868101516001600160a01b03908116888701528682015116868601526060908101519085015260809093019290850190600101611aae565b5091979650505050505050565b60008060008060008060808789031215611b2357600080fd5b86359550611b3360208801611923565b945060408701356001600160401b0380821115611b4f57600080fd5b611b5b8a838b0161181e565b90965094506060890135915080821115611b7457600080fd5b50611b8189828a0161181e565b979a9699509497509295939492505050565b600080600080600060808688031215611bab57600080fd5b85359450611bbb60208701611923565b93506040860135925060608601356001600160401b03811115611bdd57600080fd5b611be98882890161181e565b969995985093965092949392505050565b634e487b7160e01b600052603260045260246000fd5b600060208284031215611c2257600080fd5b61181782611923565b91825260601b6bffffffffffffffffffffffff1916602082015260340190565b634e487b7160e01b600052601160045260246000fd5b8082018082111561050957610509611c4b565b600060018201611c8657611c86611c4b565b5060010190565b634e487b7160e01b600052604160045260246000fd5b8181038181111561050957610509611c4b565b808202811582820484141761050957610509611c4b565b600082611cea57634e487b7160e01b600052601260045260246000fd5b500490565b9384526001600160a01b039283166020850152604084019190915216606082015260800190565b6000808335601e19843603018112611d2d57600080fd5b8301803591506001600160401b03821115611d4757600080fd5b6020019150600581901b360382131561186257600080fdfea2646970667358221220b782871292e4c7b5d713b6fa74d21787ed8e5acef1c2d52a8c1bd2565c882f2464736f6c63430008140033","opcodes":"PUSH1 0x80 PUSH1 0x40 MSTORE CALLVALUE DUP1 ISZERO PUSH3 0x11 JUMPI PUSH1 0x0 DUP1 REVERT JUMPDEST POP PUSH1 0x40 MLOAD PUSH3 0x1ECD CODESIZE SUB DUP1 PUSH3 0x1ECD DUP4 CODECOPY DUP2 ADD PUSH1 0x40 DUP2 SWAP1 MSTORE PUSH3 0x34 SWAP2 PUSH3 0x103 JUMP JUMPDEST PUSH1 0x4 DUP3 SWAP1 SSTORE PUSH1 0x5 DUP2 SWAP1 SSTORE PUSH3 0x4B PUSH1 0x0 CALLER PUSH3 0x54 JUMP JUMPDEST POP POP POP PUSH3 0x128 JUMP JUMPDEST PUSH1 0x0 DUP3 DUP2 MSTORE PUSH1 0x20 DUP2 DUP2 MSTORE PUSH1 0x40 DUP1 DUP4 KECCAK256 PUSH1 0x1 PUSH1 0x1 PUSH1 0xA0 SHL SUB DUP6 AND DUP5 MSTORE SWAP1 SWAP2 MSTORE DUP2 KECCAK256 SLOAD PUSH1 0xFF AND PUSH3 0xF9 JUMPI PUSH1 0x0 DUP4 DUP2 MSTORE PUSH1 0x20 DUP2 DUP2 MSTORE PUSH1 0x40 DUP1 DUP4 KECCAK256 PUSH1 0x1 PUSH1 0x1 PUSH1 0xA0 SHL SUB DUP7 AND DUP5 MSTORE SWAP1 SWAP2 MSTORE SWAP1 KECCAK256 DUP1 SLOAD PUSH1 0xFF NOT AND PUSH1 0x1 OR SWAP1 SSTORE PUSH3 0xB0 CALLER SWAP1 JUMP JUMPDEST PUSH1 0x1 PUSH1 0x1 PUSH1 0xA0 SHL SUB AND DUP3 PUSH1 0x1 PUSH1 0x1 PUSH1 0xA0 SHL SUB AND DUP5 PUSH32 0x2F8788117E7EFF1D82E926EC794901D17C78024A50270940304540A733656F0D PUSH1 0x40 MLOAD PUSH1 0x40 MLOAD DUP1 SWAP2 SUB SWAP1 LOG4 POP PUSH1 0x1 PUSH3 0xFD JUMP JUMPDEST POP PUSH1 0x0 JUMPDEST SWAP3 SWAP2 POP POP JUMP JUMPDEST PUSH1 0x0 DUP1 PUSH1 0x40 DUP4 DUP6 SUB SLT ISZERO PUSH3 0x117 JUMPI PUSH1 0x0 DUP1 REVERT JUMPDEST POP POP DUP1 MLOAD PUSH1 0x20 SWAP1 SWAP2 ADD MLOAD SWAP1 SWAP3 SWAP1 SWAP2 POP JUMP JUMPDEST PUSH2 0x1D95 DUP1 PUSH3 0x138 PUSH1 0x0 CODECOPY PUSH1 0x0 RETURN INVALID PUSH1 0x80 PUSH1 0x40 MSTORE PUSH1 0x4 CALLDATASIZE LT PUSH2 0x14B JUMPI PUSH1 0x0 CALLDATALOAD PUSH1 0xE0 SHR DUP1 PUSH4 0x7BCDFA7A GT PUSH2 0xB6 JUMPI DUP1 PUSH4 0xB3289B17 GT PUSH2 0x6F JUMPI DUP1 PUSH4 0xB3289B17 EQ PUSH2 0x40B JUMPI DUP1 PUSH4 0xB73ADF90 EQ PUSH2 0x42B JUMPI DUP1 PUSH4 0xD3C4E4DF EQ PUSH2 0x44B JUMPI DUP1 PUSH4 0xD547741F EQ PUSH2 0x46B JUMPI DUP1 PUSH4 0xD9E4E44F EQ PUSH2 0x48B JUMPI DUP1 PUSH4 0xE49DE283 EQ PUSH2 0x4AB JUMPI PUSH1 0x0 DUP1 REVERT JUMPDEST DUP1 PUSH4 0x7BCDFA7A EQ PUSH2 0x31C JUMPI DUP1 PUSH4 0x7CE3489B EQ PUSH2 0x373 JUMPI DUP1 PUSH4 0x7FD6F15C EQ PUSH2 0x393 JUMPI DUP1 PUSH4 0x91D0E383 EQ PUSH2 0x3A9 JUMPI DUP1 PUSH4 0x91D14854 EQ PUSH2 0x3D6 JUMPI DUP1 PUSH4 0xA217FDDF EQ PUSH2 0x3F6 JUMPI PUSH1 0x0 DUP1 REVERT JUMPDEST DUP1 PUSH4 0x44F14EB6 GT PUSH2 0x108 JUMPI DUP1 PUSH4 0x44F14EB6 EQ PUSH2 0x248 JUMPI DUP1 PUSH4 0x4714516F EQ PUSH2 0x25B JUMPI DUP1 PUSH4 0x513C038F EQ PUSH2 0x288 JUMPI DUP1 PUSH4 0x6EBB2C99 EQ PUSH2 0x2A8 JUMPI DUP1 PUSH4 0x797669C9 EQ PUSH2 0x2C8 JUMPI DUP1 PUSH4 0x7AE31498 EQ PUSH2 0x2FC JUMPI PUSH1 0x0 DUP1 REVERT JUMPDEST DUP1 PUSH4 0x1FFC9A7 EQ PUSH2 0x150 JUMPI DUP1 PUSH4 0x7C01BF2 EQ PUSH2 0x185 JUMPI DUP1 PUSH4 0x248A9CA3 EQ PUSH2 0x1B2 JUMPI DUP1 PUSH4 0x2A49D418 EQ PUSH2 0x1F0 JUMPI DUP1 PUSH4 0x2F2FF15D EQ PUSH2 0x206 JUMPI DUP1 PUSH4 0x36568ABE EQ PUSH2 0x228 JUMPI JUMPDEST PUSH1 0x0 DUP1 REVERT JUMPDEST CALLVALUE DUP1 ISZERO PUSH2 0x15C JUMPI PUSH1 0x0 DUP1 REVERT JUMPDEST POP PUSH2 0x170 PUSH2 0x16B CALLDATASIZE PUSH1 0x4 PUSH2 0x17ED JUMP JUMPDEST PUSH2 0x4D8 JUMP JUMPDEST PUSH1 0x40 MLOAD SWAP1 ISZERO ISZERO DUP2 MSTORE PUSH1 0x20 ADD JUMPDEST PUSH1 0x40 MLOAD DUP1 SWAP2 SUB SWAP1 RETURN JUMPDEST CALLVALUE DUP1 ISZERO PUSH2 0x191 JUMPI PUSH1 0x0 DUP1 REVERT JUMPDEST POP PUSH2 0x1A5 PUSH2 0x1A0 CALLDATASIZE PUSH1 0x4 PUSH2 0x1869 JUMP JUMPDEST PUSH2 0x50F JUMP JUMPDEST PUSH1 0x40 MLOAD PUSH2 0x17C SWAP2 SWAP1 PUSH2 0x18C6 JUMP JUMPDEST CALLVALUE DUP1 ISZERO PUSH2 0x1BE JUMPI PUSH1 0x0 DUP1 REVERT JUMPDEST POP PUSH2 0x1E2 PUSH2 0x1CD CALLDATASIZE PUSH1 0x4 PUSH2 0x190A JUMP JUMPDEST PUSH1 0x0 SWAP1 DUP2 MSTORE PUSH1 0x20 DUP2 SWAP1 MSTORE PUSH1 0x40 SWAP1 KECCAK256 PUSH1 0x1 ADD SLOAD SWAP1 JUMP JUMPDEST PUSH1 0x40 MLOAD SWAP1 DUP2 MSTORE PUSH1 0x20 ADD PUSH2 0x17C JUMP JUMPDEST CALLVALUE DUP1 ISZERO PUSH2 0x1FC JUMPI PUSH1 0x0 DUP1 REVERT JUMPDEST POP PUSH2 0x1E2 PUSH1 0x4 SLOAD DUP2 JUMP JUMPDEST CALLVALUE DUP1 ISZERO PUSH2 0x212 JUMPI PUSH1 0x0 DUP1 REVERT JUMPDEST POP PUSH2 0x226 PUSH2 0x221 CALLDATASIZE PUSH1 0x4 PUSH2 0x193F JUMP JUMPDEST PUSH2 0x760 JUMP JUMPDEST STOP JUMPDEST CALLVALUE DUP1 ISZERO PUSH2 0x234 JUMPI PUSH1 0x0 DUP1 REVERT JUMPDEST POP PUSH2 0x226 PUSH2 0x243 CALLDATASIZE PUSH1 0x4 PUSH2 0x193F JUMP JUMPDEST PUSH2 0x78B JUMP JUMPDEST PUSH2 0x226 PUSH2 0x256 CALLDATASIZE PUSH1 0x4 PUSH2 0x196B JUMP JUMPDEST PUSH2 0x7C3 JUMP JUMPDEST CALLVALUE DUP1 ISZERO PUSH2 0x267 JUMPI PUSH1 0x0 DUP1 REVERT JUMPDEST POP PUSH2 0x1E2 PUSH2 0x276 CALLDATASIZE PUSH1 0x4 PUSH2 0x190A JUMP JUMPDEST PUSH1 0x2 PUSH1 0x20 MSTORE PUSH1 0x0 SWAP1 DUP2 MSTORE PUSH1 0x40 SWAP1 KECCAK256 SLOAD DUP2 JUMP JUMPDEST CALLVALUE DUP1 ISZERO PUSH2 0x294 JUMPI PUSH1 0x0 DUP1 REVERT JUMPDEST POP PUSH2 0x1A5 PUSH2 0x2A3 CALLDATASIZE PUSH1 0x4 PUSH2 0x19B9 JUMP JUMPDEST PUSH2 0xB14 JUMP JUMPDEST CALLVALUE DUP1 ISZERO PUSH2 0x2B4 JUMPI PUSH1 0x0 DUP1 REVERT JUMPDEST POP PUSH2 0x1E2 PUSH2 0x2C3 CALLDATASIZE PUSH1 0x4 PUSH2 0x1A24 JUMP JUMPDEST PUSH2 0xCDA JUMP JUMPDEST CALLVALUE DUP1 ISZERO PUSH2 0x2D4 JUMPI PUSH1 0x0 DUP1 REVERT JUMPDEST POP PUSH2 0x1E2 PUSH32 0x71F3D55856E4058ED06EE057D79ADA615F65CDF5F9EE88181B914225088F834F DUP2 JUMP JUMPDEST CALLVALUE DUP1 ISZERO PUSH2 0x308 JUMPI PUSH1 0x0 DUP1 REVERT JUMPDEST POP PUSH2 0x226 PUSH2 0x317 CALLDATASIZE PUSH1 0x4 PUSH2 0x190A JUMP JUMPDEST PUSH2 0xD73 JUMP JUMPDEST CALLVALUE DUP1 ISZERO PUSH2 0x328 JUMPI PUSH1 0x0 DUP1 REVERT JUMPDEST POP PUSH2 0x33C PUSH2 0x337 CALLDATASIZE PUSH1 0x4 PUSH2 0x1A6F JUMP JUMPDEST PUSH2 0xDA3 JUMP JUMPDEST PUSH1 0x40 DUP1 MLOAD PUSH1 0x1 PUSH1 0x1 PUSH1 0x60 SHL SUB SWAP6 SWAP1 SWAP6 AND DUP6 MSTORE PUSH1 0x1 PUSH1 0x1 PUSH1 0xA0 SHL SUB SWAP4 DUP5 AND PUSH1 0x20 DUP7 ADD MSTORE SWAP2 SWAP1 SWAP3 AND SWAP1 DUP4 ADD MSTORE PUSH1 0x60 DUP3 ADD MSTORE PUSH1 0x80 ADD PUSH2 0x17C JUMP JUMPDEST CALLVALUE DUP1 ISZERO PUSH2 0x37F JUMPI PUSH1 0x0 DUP1 REVERT JUMPDEST POP PUSH2 0x226 PUSH2 0x38E CALLDATASIZE PUSH1 0x4 PUSH2 0x190A JUMP JUMPDEST PUSH2 0xE02 JUMP JUMPDEST CALLVALUE DUP1 ISZERO PUSH2 0x39F JUMPI PUSH1 0x0 DUP1 REVERT JUMPDEST POP PUSH2 0x1E2 PUSH1 0x5 SLOAD DUP2 JUMP JUMPDEST CALLVALUE DUP1 ISZERO PUSH2 0x3B5 JUMPI PUSH1 0x0 DUP1 REVERT JUMPDEST POP PUSH2 0x3C9 PUSH2 0x3C4 CALLDATASIZE PUSH1 0x4 PUSH2 0x1869 JUMP JUMPDEST PUSH2 0xE9C JUMP JUMPDEST PUSH1 0x40 MLOAD PUSH2 0x17C SWAP2 SWAP1 PUSH2 0x1A91 JUMP JUMPDEST CALLVALUE DUP1 ISZERO PUSH2 0x3E2 JUMPI PUSH1 0x0 DUP1 REVERT JUMPDEST POP PUSH2 0x170 PUSH2 0x3F1 CALLDATASIZE PUSH1 0x4 PUSH2 0x193F JUMP JUMPDEST PUSH2 0x118F JUMP JUMPDEST CALLVALUE DUP1 ISZERO PUSH2 0x402 JUMPI PUSH1 0x0 DUP1 REVERT JUMPDEST POP PUSH2 0x1E2 PUSH1 0x0 DUP2 JUMP JUMPDEST CALLVALUE DUP1 ISZERO PUSH2 0x417 JUMPI PUSH1 0x0 DUP1 REVERT JUMPDEST POP PUSH2 0x1A5 PUSH2 0x426 CALLDATASIZE PUSH1 0x4 PUSH2 0x19B9 JUMP JUMPDEST PUSH2 0x11B8 JUMP JUMPDEST CALLVALUE DUP1 ISZERO PUSH2 0x437 JUMPI PUSH1 0x0 DUP1 REVERT JUMPDEST POP PUSH2 0x1A5 PUSH2 0x446 CALLDATASIZE PUSH1 0x4 PUSH2 0x1B0A JUMP JUMPDEST PUSH2 0x12E5 JUMP JUMPDEST CALLVALUE DUP1 ISZERO PUSH2 0x457 JUMPI PUSH1 0x0 DUP1 REVERT JUMPDEST POP PUSH2 0x1E2 PUSH2 0x466 CALLDATASIZE PUSH1 0x4 PUSH2 0x1B93 JUMP JUMPDEST PUSH2 0x14B1 JUMP JUMPDEST CALLVALUE DUP1 ISZERO PUSH2 0x477 JUMPI PUSH1 0x0 DUP1 REVERT JUMPDEST POP PUSH2 0x226 PUSH2 0x486 CALLDATASIZE PUSH1 0x4 PUSH2 0x193F JUMP JUMPDEST PUSH2 0x1550 JUMP JUMPDEST CALLVALUE DUP1 ISZERO PUSH2 0x497 JUMPI PUSH1 0x0 DUP1 REVERT JUMPDEST POP PUSH2 0x1A5 PUSH2 0x4A6 CALLDATASIZE PUSH1 0x4 PUSH2 0x1B0A JUMP JUMPDEST PUSH2 0x1575 JUMP JUMPDEST CALLVALUE DUP1 ISZERO PUSH2 0x4B7 JUMPI PUSH1 0x0 DUP1 REVERT JUMPDEST POP PUSH2 0x1E2 PUSH2 0x4C6 CALLDATASIZE PUSH1 0x4 PUSH2 0x190A JUMP JUMPDEST PUSH1 0x3 PUSH1 0x20 MSTORE PUSH1 0x0 SWAP1 DUP2 MSTORE PUSH1 0x40 SWAP1 KECCAK256 SLOAD DUP2 JUMP JUMPDEST PUSH1 0x0 PUSH1 0x1 PUSH1 0x1 PUSH1 0xE0 SHL SUB NOT DUP3 AND PUSH4 0x7965DB0B PUSH1 0xE0 SHL EQ DUP1 PUSH2 0x509 JUMPI POP PUSH4 0x1FFC9A7 PUSH1 0xE0 SHL PUSH1 0x1 PUSH1 0x1 PUSH1 0xE0 SHL SUB NOT DUP4 AND EQ JUMPDEST SWAP3 SWAP2 POP POP JUMP JUMPDEST PUSH1 0x60 PUSH1 0x0 DUP1 JUMPDEST DUP6 DUP2 LT ISZERO PUSH2 0x5A0 JUMPI PUSH1 0x0 DUP9 DUP9 DUP9 DUP5 DUP2 DUP2 LT PUSH2 0x532 JUMPI PUSH2 0x532 PUSH2 0x1BFA JUMP JUMPDEST SWAP1 POP PUSH1 0x20 MUL ADD PUSH1 0x20 DUP2 ADD SWAP1 PUSH2 0x547 SWAP2 SWAP1 PUSH2 0x1C10 JUMP JUMPDEST PUSH1 0x40 MLOAD PUSH1 0x20 ADD PUSH2 0x558 SWAP3 SWAP2 SWAP1 PUSH2 0x1C2B JUMP JUMPDEST PUSH1 0x40 DUP1 MLOAD PUSH1 0x1F NOT DUP2 DUP5 SUB ADD DUP2 MSTORE SWAP2 DUP2 MSTORE DUP2 MLOAD PUSH1 0x20 SWAP3 DUP4 ADD KECCAK256 PUSH1 0x0 DUP2 DUP2 MSTORE PUSH1 0x1 SWAP1 SWAP4 MSTORE SWAP2 KECCAK256 SLOAD SWAP1 SWAP2 POP PUSH2 0x58A SWAP1 DUP5 PUSH2 0x1C61 JUMP JUMPDEST SWAP3 POP POP DUP1 DUP1 PUSH2 0x598 SWAP1 PUSH2 0x1C74 JUMP JUMPDEST SWAP2 POP POP PUSH2 0x515 JUMP JUMPDEST POP DUP1 DUP5 LT PUSH2 0x5C3 JUMPI PUSH1 0x40 DUP1 MLOAD PUSH1 0x0 DUP1 DUP3 MSTORE PUSH1 0x20 DUP3 ADD SWAP1 SWAP3 MSTORE SWAP1 JUMPDEST POP SWAP2 POP POP PUSH2 0x757 JUMP JUMPDEST DUP3 DUP2 PUSH2 0x5CF DUP3 DUP8 PUSH2 0x1C61 JUMP JUMPDEST GT ISZERO PUSH2 0x5E2 JUMPI PUSH2 0x5DF DUP6 DUP4 PUSH2 0x1CA3 JUMP JUMPDEST SWAP1 POP JUMPDEST DUP1 PUSH1 0x1 PUSH1 0x1 PUSH1 0x40 SHL SUB DUP2 GT ISZERO PUSH2 0x5FA JUMPI PUSH2 0x5FA PUSH2 0x1C8D JUMP JUMPDEST PUSH1 0x40 MLOAD SWAP1 DUP1 DUP3 MSTORE DUP1 PUSH1 0x20 MUL PUSH1 0x20 ADD DUP3 ADD PUSH1 0x40 MSTORE DUP1 ISZERO PUSH2 0x623 JUMPI DUP2 PUSH1 0x20 ADD PUSH1 0x20 DUP3 MUL DUP1 CALLDATASIZE DUP4 CALLDATACOPY ADD SWAP1 POP JUMPDEST POP SWAP3 POP PUSH1 0x0 DUP1 PUSH1 0x0 JUMPDEST DUP9 DUP2 LT DUP1 ISZERO PUSH2 0x63A JUMPI POP DUP4 DUP3 LT JUMPDEST ISZERO PUSH2 0x751 JUMPI PUSH1 0x0 DUP12 DUP12 DUP12 DUP5 DUP2 DUP2 LT PUSH2 0x654 JUMPI PUSH2 0x654 PUSH2 0x1BFA JUMP JUMPDEST SWAP1 POP PUSH1 0x20 MUL ADD PUSH1 0x20 DUP2 ADD SWAP1 PUSH2 0x669 SWAP2 SWAP1 PUSH2 0x1C10 JUMP JUMPDEST PUSH1 0x40 MLOAD PUSH1 0x20 ADD PUSH2 0x67A SWAP3 SWAP2 SWAP1 PUSH2 0x1C2B JUMP JUMPDEST PUSH1 0x40 DUP1 MLOAD PUSH1 0x1F NOT DUP2 DUP5 SUB ADD DUP2 MSTORE SWAP2 DUP2 MSTORE DUP2 MLOAD PUSH1 0x20 SWAP3 DUP4 ADD KECCAK256 PUSH1 0x0 DUP2 DUP2 MSTORE PUSH1 0x1 SWAP1 SWAP4 MSTORE SWAP1 DUP3 KECCAK256 SWAP1 SWAP3 POP SWAP1 JUMPDEST DUP2 SLOAD DUP2 LT DUP1 ISZERO PUSH2 0x6B3 JUMPI POP DUP7 DUP6 LT JUMPDEST ISZERO PUSH2 0x73B JUMPI DUP11 DUP7 LT PUSH2 0x71B JUMPI DUP2 DUP2 DUP2 SLOAD DUP2 LT PUSH2 0x6D1 JUMPI PUSH2 0x6D1 PUSH2 0x1BFA JUMP JUMPDEST PUSH1 0x0 SWAP2 DUP3 MSTORE PUSH1 0x20 SWAP1 SWAP2 KECCAK256 PUSH1 0x3 SWAP1 SWAP2 MUL ADD SLOAD DUP10 MLOAD PUSH1 0x1 PUSH1 0x1 PUSH1 0x60 SHL SUB SWAP1 SWAP2 AND SWAP1 DUP11 SWAP1 DUP8 SWAP1 DUP2 LT PUSH2 0x702 JUMPI PUSH2 0x702 PUSH2 0x1BFA JUMP JUMPDEST PUSH1 0x20 SWAP1 DUP2 MUL SWAP2 SWAP1 SWAP2 ADD ADD MSTORE DUP5 PUSH2 0x717 DUP2 PUSH2 0x1C74 JUMP JUMPDEST SWAP6 POP POP JUMPDEST DUP6 PUSH2 0x725 DUP2 PUSH2 0x1C74 JUMP JUMPDEST SWAP7 POP POP DUP1 DUP1 PUSH2 0x733 SWAP1 PUSH2 0x1C74 JUMP JUMPDEST SWAP2 POP POP PUSH2 0x6A4 JUMP JUMPDEST POP POP POP DUP1 DUP1 PUSH2 0x749 SWAP1 PUSH2 0x1C74 JUMP JUMPDEST SWAP2 POP POP PUSH2 0x62C JUMP JUMPDEST POP POP POP POP POP JUMPDEST SWAP6 SWAP5 POP POP POP POP POP JUMP JUMPDEST PUSH1 0x0 DUP3 DUP2 MSTORE PUSH1 0x20 DUP2 SWAP1 MSTORE PUSH1 0x40 SWAP1 KECCAK256 PUSH1 0x1 ADD SLOAD PUSH2 0x77B DUP2 PUSH2 0x16A6 JUMP JUMPDEST PUSH2 0x785 DUP4 DUP4 PUSH2 0x16B3 JUMP JUMPDEST POP POP POP POP JUMP JUMPDEST PUSH1 0x1 PUSH1 0x1 PUSH1 0xA0 SHL SUB DUP2 AND CALLER EQ PUSH2 0x7B4 JUMPI PUSH1 0x40 MLOAD PUSH4 0x334BD919 PUSH1 0xE1 SHL DUP2 MSTORE PUSH1 0x4 ADD PUSH1 0x40 MLOAD DUP1 SWAP2 SUB SWAP1 REVERT JUMPDEST PUSH2 0x7BE DUP3 DUP3 PUSH2 0x1745 JUMP JUMPDEST POP POP POP JUMP JUMPDEST PUSH1 0x4 SLOAD CALLVALUE LT ISZERO PUSH2 0x812 JUMPI PUSH1 0x40 MLOAD PUSH3 0x461BCD PUSH1 0xE5 SHL DUP2 MSTORE PUSH1 0x20 PUSH1 0x4 DUP3 ADD MSTORE PUSH1 0x15 PUSH1 0x24 DUP3 ADD MSTORE PUSH21 0x54697020616D6F756E7420697320746F6F206C6F77 PUSH1 0x58 SHL PUSH1 0x44 DUP3 ADD MSTORE PUSH1 0x64 ADD JUMPDEST PUSH1 0x40 MLOAD DUP1 SWAP2 SUB SWAP1 REVERT JUMPDEST DUP4 CALLVALUE EQ PUSH2 0x861 JUMPI PUSH1 0x40 MLOAD PUSH3 0x461BCD PUSH1 0xE5 SHL DUP2 MSTORE PUSH1 0x20 PUSH1 0x4 DUP3 ADD MSTORE PUSH1 0x1F PUSH1 0x24 DUP3 ADD MSTORE PUSH32 0x53656E742076616C756520646F65736E2774206D6174636820616D6F756E7400 PUSH1 0x44 DUP3 ADD MSTORE PUSH1 0x64 ADD PUSH2 0x809 JUMP JUMPDEST PUSH1 0x0 PUSH1 0x64 PUSH1 0x5 SLOAD DUP7 PUSH2 0x873 SWAP2 SWAP1 PUSH2 0x1CB6 JUMP JUMPDEST PUSH2 0x87D SWAP2 SWAP1 PUSH2 0x1CCD JUMP JUMPDEST SWAP1 POP PUSH1 0x0 PUSH2 0x88B DUP3 DUP8 PUSH2 0x1CA3 JUMP JUMPDEST PUSH1 0x40 MLOAD SWAP1 SWAP2 POP PUSH1 0x1 PUSH1 0x1 PUSH1 0xA0 SHL SUB DUP7 AND SWAP1 DUP4 ISZERO PUSH2 0x8FC MUL SWAP1 DUP5 SWAP1 PUSH1 0x0 DUP2 DUP2 DUP2 DUP6 DUP9 DUP9 CALL SWAP4 POP POP POP POP ISZERO DUP1 ISZERO PUSH2 0x8C4 JUMPI RETURNDATASIZE PUSH1 0x0 DUP1 RETURNDATACOPY RETURNDATASIZE PUSH1 0x0 REVERT JUMPDEST POP PUSH1 0x40 MLOAD PUSH1 0x1 PUSH1 0x1 PUSH1 0xA0 SHL SUB DUP9 AND SWAP1 DUP3 ISZERO PUSH2 0x8FC MUL SWAP1 DUP4 SWAP1 PUSH1 0x0 DUP2 DUP2 DUP2 DUP6 DUP9 DUP9 CALL SWAP4 POP POP POP POP ISZERO DUP1 ISZERO PUSH2 0x8FB JUMPI RETURNDATASIZE PUSH1 0x0 DUP1 RETURNDATACOPY RETURNDATASIZE PUSH1 0x0 REVERT JUMPDEST POP PUSH1 0x0 DUP4 DUP7 PUSH1 0x40 MLOAD PUSH1 0x20 ADD PUSH2 0x911 SWAP3 SWAP2 SWAP1 PUSH2 0x1C2B JUMP JUMPDEST PUSH1 0x40 MLOAD PUSH1 0x20 DUP2 DUP4 SUB SUB DUP2 MSTORE SWAP1 PUSH1 0x40 MSTORE DUP1 MLOAD SWAP1 PUSH1 0x20 ADD KECCAK256 SWAP1 POP PUSH1 0x1 PUSH1 0x0 DUP3 DUP2 MSTORE PUSH1 0x20 ADD SWAP1 DUP2 MSTORE PUSH1 0x20 ADD PUSH1 0x0 KECCAK256 PUSH1 0x40 MLOAD DUP1 PUSH1 0x80 ADD PUSH1 0x40 MSTORE DUP1 DUP10 PUSH1 0x1 PUSH1 0x1 PUSH1 0x60 SHL SUB AND DUP2 MSTORE PUSH1 0x20 ADD DUP9 PUSH1 0x1 PUSH1 0x1 PUSH1 0xA0 SHL SUB AND DUP2 MSTORE PUSH1 0x20 ADD CALLER PUSH1 0x1 PUSH1 0x1 PUSH1 0xA0 SHL SUB AND DUP2 MSTORE PUSH1 0x20 ADD DUP8 DUP2 MSTORE POP SWAP1 DUP1 PUSH1 0x1 DUP2 SLOAD ADD DUP1 DUP3 SSTORE DUP1 SWAP2 POP POP PUSH1 0x1 SWAP1 SUB SWAP1 PUSH1 0x0 MSTORE PUSH1 0x20 PUSH1 0x0 KECCAK256 SWAP1 PUSH1 0x3 MUL ADD PUSH1 0x0 SWAP1 SWAP2 SWAP1 SWAP2 SWAP1 SWAP2 POP PUSH1 0x0 DUP3 ADD MLOAD DUP2 PUSH1 0x0 ADD PUSH1 0x0 PUSH2 0x100 EXP DUP2 SLOAD DUP2 PUSH1 0x1 PUSH1 0x1 PUSH1 0x60 SHL SUB MUL NOT AND SWAP1 DUP4 PUSH1 0x1 PUSH1 0x1 PUSH1 0x60 SHL SUB AND MUL OR SWAP1 SSTORE POP PUSH1 0x20 DUP3 ADD MLOAD DUP2 PUSH1 0x0 ADD PUSH1 0xC PUSH2 0x100 EXP DUP2 SLOAD DUP2 PUSH1 0x1 PUSH1 0x1 PUSH1 0xA0 SHL SUB MUL NOT AND SWAP1 DUP4 PUSH1 0x1 PUSH1 0x1 PUSH1 0xA0 SHL SUB AND MUL OR SWAP1 SSTORE POP PUSH1 0x40 DUP3 ADD MLOAD DUP2 PUSH1 0x1 ADD PUSH1 0x0 PUSH2 0x100 EXP DUP2 SLOAD DUP2 PUSH1 0x1 PUSH1 0x1 PUSH1 0xA0 SHL SUB MUL NOT AND SWAP1 DUP4 PUSH1 0x1 PUSH1 0x1 PUSH1 0xA0 SHL SUB AND MUL OR SWAP1 SSTORE POP PUSH1 0x60 DUP3 ADD MLOAD DUP2 PUSH1 0x2 ADD SSTORE POP POP DUP7 PUSH1 0x2 PUSH1 0x0 DUP4 DUP2 MSTORE PUSH1 0x20 ADD SWAP1 DUP2 MSTORE PUSH1 0x20 ADD PUSH1 0x0 KECCAK256 PUSH1 0x0 DUP3 DUP3 SLOAD PUSH2 0xA57 SWAP2 SWAP1 PUSH2 0x1C61 JUMP JUMPDEST SWAP1 SWAP2 SSTORE POP POP PUSH1 0x40 MLOAD PUSH1 0x0 SWAP1 PUSH2 0xA76 SWAP1 DUP8 SWAP1 CALLER SWAP1 DUP9 SWAP1 DUP12 SWAP1 PUSH1 0x20 ADD PUSH2 0x1CEF JUMP JUMPDEST PUSH1 0x40 MLOAD PUSH1 0x20 DUP2 DUP4 SUB SUB DUP2 MSTORE SWAP1 PUSH1 0x40 MSTORE DUP1 MLOAD SWAP1 PUSH1 0x20 ADD KECCAK256 SWAP1 POP DUP8 PUSH1 0x3 PUSH1 0x0 DUP4 DUP2 MSTORE PUSH1 0x20 ADD SWAP1 DUP2 MSTORE PUSH1 0x20 ADD PUSH1 0x0 KECCAK256 PUSH1 0x0 DUP3 DUP3 SLOAD PUSH2 0xAB1 SWAP2 SWAP1 PUSH2 0x1C61 JUMP JUMPDEST SWAP1 SWAP2 SSTORE POP POP PUSH1 0x40 DUP1 MLOAD DUP10 DUP2 MSTORE PUSH1 0x20 DUP2 ADD DUP8 SWAP1 MSTORE SWAP1 DUP2 ADD DUP8 SWAP1 MSTORE PUSH1 0x1 PUSH1 0x1 PUSH1 0xA0 SHL SUB DUP1 DUP10 AND SWAP2 SWAP1 DUP12 AND SWAP1 CALLER SWAP1 PUSH32 0x5CDB0F7813A64A2CAF6AA7559B9945CF37CEF9897BE2AED5E0EDAD7AE4FDAB01 SWAP1 PUSH1 0x60 ADD PUSH1 0x40 MLOAD DUP1 SWAP2 SUB SWAP1 LOG4 POP POP POP POP POP POP POP POP POP JUMP JUMPDEST PUSH1 0x60 DUP4 DUP3 EQ PUSH2 0xB5E JUMPI PUSH1 0x40 MLOAD PUSH3 0x461BCD PUSH1 0xE5 SHL DUP2 MSTORE PUSH1 0x20 PUSH1 0x4 DUP3 ADD MSTORE PUSH1 0x16 PUSH1 0x24 DUP3 ADD MSTORE PUSH22 0x82E4E4C2F2E640D8CADCCEE8D040DAD2E6DAC2E8C6D PUSH1 0x53 SHL PUSH1 0x44 DUP3 ADD MSTORE PUSH1 0x64 ADD PUSH2 0x809 JUMP JUMPDEST PUSH1 0x0 DUP5 PUSH1 0x1 PUSH1 0x1 PUSH1 0x40 SHL SUB DUP2 GT ISZERO PUSH2 0xB78 JUMPI PUSH2 0xB78 PUSH2 0x1C8D JUMP JUMPDEST PUSH1 0x40 MLOAD SWAP1 DUP1 DUP3 MSTORE DUP1 PUSH1 0x20 MUL PUSH1 0x20 ADD DUP3 ADD PUSH1 0x40 MSTORE DUP1 ISZERO PUSH2 0xBA1 JUMPI DUP2 PUSH1 0x20 ADD PUSH1 0x20 DUP3 MUL DUP1 CALLDATASIZE DUP4 CALLDATACOPY ADD SWAP1 POP JUMPDEST POP SWAP1 POP PUSH1 0x0 JUMPDEST DUP6 DUP2 LT ISZERO PUSH2 0xCD0 JUMPI PUSH1 0x0 JUMPDEST DUP6 DUP6 DUP4 DUP2 DUP2 LT PUSH2 0xBC4 JUMPI PUSH2 0xBC4 PUSH2 0x1BFA JUMP JUMPDEST SWAP1 POP PUSH1 0x20 MUL DUP2 ADD SWAP1 PUSH2 0xBD6 SWAP2 SWAP1 PUSH2 0x1D16 JUMP JUMPDEST SWAP1 POP DUP2 LT ISZERO PUSH2 0xCBD JUMPI PUSH1 0x0 DUP9 DUP9 DUP5 DUP2 DUP2 LT PUSH2 0xBF3 JUMPI PUSH2 0xBF3 PUSH2 0x1BFA JUMP JUMPDEST SWAP1 POP PUSH1 0x20 MUL ADD CALLDATALOAD DUP8 DUP8 DUP6 DUP2 DUP2 LT PUSH2 0xC0C JUMPI PUSH2 0xC0C PUSH2 0x1BFA JUMP JUMPDEST SWAP1 POP PUSH1 0x20 MUL DUP2 ADD SWAP1 PUSH2 0xC1E SWAP2 SWAP1 PUSH2 0x1D16 JUMP JUMPDEST DUP5 DUP2 DUP2 LT PUSH2 0xC2E JUMPI PUSH2 0xC2E PUSH2 0x1BFA JUMP JUMPDEST SWAP1 POP PUSH1 0x20 MUL ADD PUSH1 0x20 DUP2 ADD SWAP1 PUSH2 0xC43 SWAP2 SWAP1 PUSH2 0x1C10 JUMP JUMPDEST PUSH1 0x40 MLOAD PUSH1 0x20 ADD PUSH2 0xC54 SWAP3 SWAP2 SWAP1 PUSH2 0x1C2B JUMP JUMPDEST PUSH1 0x40 MLOAD PUSH1 0x20 DUP2 DUP4 SUB SUB DUP2 MSTORE SWAP1 PUSH1 0x40 MSTORE DUP1 MLOAD SWAP1 PUSH1 0x20 ADD KECCAK256 SWAP1 POP PUSH1 0x2 PUSH1 0x0 DUP3 DUP2 MSTORE PUSH1 0x20 ADD SWAP1 DUP2 MSTORE PUSH1 0x20 ADD PUSH1 0x0 KECCAK256 SLOAD DUP5 DUP5 DUP2 MLOAD DUP2 LT PUSH2 0xC92 JUMPI PUSH2 0xC92 PUSH2 0x1BFA JUMP JUMPDEST PUSH1 0x20 MUL PUSH1 0x20 ADD ADD DUP2 DUP2 MLOAD PUSH2 0xCA6 SWAP2 SWAP1 PUSH2 0x1C61 JUMP JUMPDEST SWAP1 MSTORE POP DUP2 SWAP1 POP PUSH2 0xCB5 DUP2 PUSH2 0x1C74 JUMP JUMPDEST SWAP2 POP POP PUSH2 0xBB2 JUMP JUMPDEST POP DUP1 PUSH2 0xCC8 DUP2 PUSH2 0x1C74 JUMP JUMPDEST SWAP2 POP POP PUSH2 0xBA7 JUMP JUMPDEST POP SWAP6 SWAP5 POP POP POP POP POP JUMP JUMPDEST PUSH1 0x0 DUP1 DUP1 JUMPDEST DUP4 DUP2 LT ISZERO PUSH2 0xD6A JUMPI PUSH1 0x0 DUP7 DUP7 DUP7 DUP5 DUP2 DUP2 LT PUSH2 0xCFC JUMPI PUSH2 0xCFC PUSH2 0x1BFA JUMP JUMPDEST SWAP1 POP PUSH1 0x20 MUL ADD PUSH1 0x20 DUP2 ADD SWAP1 PUSH2 0xD11 SWAP2 SWAP1 PUSH2 0x1C10 JUMP JUMPDEST PUSH1 0x40 MLOAD PUSH1 0x20 ADD PUSH2 0xD22 SWAP3 SWAP2 SWAP1 PUSH2 0x1C2B JUMP JUMPDEST PUSH1 0x40 DUP1 MLOAD PUSH1 0x1F NOT DUP2 DUP5 SUB ADD DUP2 MSTORE SWAP2 DUP2 MSTORE DUP2 MLOAD PUSH1 0x20 SWAP3 DUP4 ADD KECCAK256 PUSH1 0x0 DUP2 DUP2 MSTORE PUSH1 0x2 SWAP1 SWAP4 MSTORE SWAP2 KECCAK256 SLOAD SWAP1 SWAP2 POP PUSH2 0xD54 SWAP1 DUP5 PUSH2 0x1C61 JUMP JUMPDEST SWAP3 POP POP DUP1 DUP1 PUSH2 0xD62 SWAP1 PUSH2 0x1C74 JUMP JUMPDEST SWAP2 POP POP PUSH2 0xCDF JUMP JUMPDEST POP SWAP5 SWAP4 POP POP POP POP JUMP JUMPDEST PUSH32 0x71F3D55856E4058ED06EE057D79ADA615F65CDF5F9EE88181B914225088F834F PUSH2 0xD9D DUP2 PUSH2 0x16A6 JUMP JUMPDEST POP PUSH1 0x4 SSTORE JUMP JUMPDEST PUSH1 0x1 PUSH1 0x20 MSTORE DUP2 PUSH1 0x0 MSTORE PUSH1 0x40 PUSH1 0x0 KECCAK256 DUP2 DUP2 SLOAD DUP2 LT PUSH2 0xDBF JUMPI PUSH1 0x0 DUP1 REVERT JUMPDEST PUSH1 0x0 SWAP2 DUP3 MSTORE PUSH1 0x20 SWAP1 SWAP2 KECCAK256 PUSH1 0x3 SWAP1 SWAP2 MUL ADD DUP1 SLOAD PUSH1 0x1 DUP3 ADD SLOAD PUSH1 0x2 SWAP1 SWAP3 ADD SLOAD PUSH1 0x1 PUSH1 0x1 PUSH1 0x60 SHL SUB DUP3 AND SWAP5 POP PUSH1 0x1 PUSH1 0x1 PUSH1 0xA0 SHL SUB PUSH1 0x1 PUSH1 0x60 SHL SWAP1 SWAP3 DIV DUP3 AND SWAP4 POP SWAP2 AND SWAP1 DUP5 JUMP JUMPDEST PUSH32 0x71F3D55856E4058ED06EE057D79ADA615F65CDF5F9EE88181B914225088F834F PUSH2 0xE2C DUP2 PUSH2 0x16A6 JUMP JUMPDEST PUSH1 0x1 DUP3 LT ISZERO DUP1 ISZERO PUSH2 0xE3E JUMPI POP PUSH1 0x14 DUP3 GT ISZERO JUMPDEST PUSH2 0xE96 JUMPI PUSH1 0x40 MLOAD PUSH3 0x461BCD PUSH1 0xE5 SHL DUP2 MSTORE PUSH1 0x20 PUSH1 0x4 DUP3 ADD MSTORE PUSH1 0x24 DUP1 DUP3 ADD MSTORE PUSH32 0x4665652070657263656E74206D757374206265206265747765656E203120616E PUSH1 0x44 DUP3 ADD MSTORE PUSH4 0x6420323 PUSH1 0xE4 SHL PUSH1 0x64 DUP3 ADD MSTORE PUSH1 0x84 ADD PUSH2 0x809 JUMP JUMPDEST POP PUSH1 0x5 SSTORE JUMP JUMPDEST PUSH1 0x60 PUSH1 0x0 DUP1 JUMPDEST DUP6 DUP2 LT ISZERO PUSH2 0xF2D JUMPI PUSH1 0x0 DUP9 DUP9 DUP9 DUP5 DUP2 DUP2 LT PUSH2 0xEBF JUMPI PUSH2 0xEBF PUSH2 0x1BFA JUMP JUMPDEST SWAP1 POP PUSH1 0x20 MUL ADD PUSH1 0x20 DUP2 ADD SWAP1 PUSH2 0xED4 SWAP2 SWAP1 PUSH2 0x1C10 JUMP JUMPDEST PUSH1 0x40 MLOAD PUSH1 0x20 ADD PUSH2 0xEE5 SWAP3 SWAP2 SWAP1 PUSH2 0x1C2B JUMP JUMPDEST PUSH1 0x40 DUP1 MLOAD PUSH1 0x1F NOT DUP2 DUP5 SUB ADD DUP2 MSTORE SWAP2 DUP2 MSTORE DUP2 MLOAD PUSH1 0x20 SWAP3 DUP4 ADD KECCAK256 PUSH1 0x0 DUP2 DUP2 MSTORE PUSH1 0x1 SWAP1 SWAP4 MSTORE SWAP2 KECCAK256 SLOAD SWAP1 SWAP2 POP PUSH2 0xF17 SWAP1 DUP5 PUSH2 0x1C61 JUMP JUMPDEST SWAP3 POP POP DUP1 DUP1 PUSH2 0xF25 SWAP1 PUSH2 0x1C74 JUMP JUMPDEST SWAP2 POP POP PUSH2 0xEA2 JUMP JUMPDEST POP DUP1 DUP5 LT PUSH2 0xF87 JUMPI PUSH1 0x40 DUP1 MLOAD PUSH1 0x0 DUP1 DUP3 MSTORE PUSH1 0x20 DUP3 ADD SWAP1 SWAP3 MSTORE SWAP1 PUSH2 0x5BA JUMP JUMPDEST PUSH1 0x40 DUP1 MLOAD PUSH1 0x80 DUP2 ADD DUP3 MSTORE PUSH1 0x0 DUP1 DUP3 MSTORE PUSH1 0x20 DUP1 DUP4 ADD DUP3 SWAP1 MSTORE SWAP3 DUP3 ADD DUP2 SWAP1 MSTORE PUSH1 0x60 DUP3 ADD MSTORE DUP3 MSTORE PUSH1 0x0 NOT SWAP1 SWAP3 ADD SWAP2 ADD DUP2 PUSH2 0xF4B JUMPI SWAP1 POP POP SWAP2 POP POP PUSH2 0x757 JUMP JUMPDEST DUP3 DUP2 PUSH2 0xF93 DUP3 DUP8 PUSH2 0x1C61 JUMP JUMPDEST GT ISZERO PUSH2 0xFA6 JUMPI PUSH2 0xFA3 DUP6 DUP4 PUSH2 0x1CA3 JUMP JUMPDEST SWAP1 POP JUMPDEST PUSH1 0x0 DUP2 PUSH1 0x1 PUSH1 0x1 PUSH1 0x40 SHL SUB DUP2 GT ISZERO PUSH2 0xFC0 JUMPI PUSH2 0xFC0 PUSH2 0x1C8D JUMP JUMPDEST PUSH1 0x40 MLOAD SWAP1 DUP1 DUP3 MSTORE DUP1 PUSH1 0x20 MUL PUSH1 0x20 ADD DUP3 ADD PUSH1 0x40 MSTORE DUP1 ISZERO PUSH2 0x1012 JUMPI DUP2 PUSH1 0x20 ADD JUMPDEST PUSH1 0x40 DUP1 MLOAD PUSH1 0x80 DUP2 ADD DUP3 MSTORE PUSH1 0x0 DUP1 DUP3 MSTORE PUSH1 0x20 DUP1 DUP4 ADD DUP3 SWAP1 MSTORE SWAP3 DUP3 ADD DUP2 SWAP1 MSTORE PUSH1 0x60 DUP3 ADD MSTORE DUP3 MSTORE PUSH1 0x0 NOT SWAP1 SWAP3 ADD SWAP2 ADD DUP2 PUSH2 0xFDE JUMPI SWAP1 POP JUMPDEST POP SWAP1 POP PUSH1 0x0 DUP1 PUSH1 0x0 JUMPDEST DUP10 DUP2 LT DUP1 ISZERO PUSH2 0x1029 JUMPI POP DUP5 DUP3 LT JUMPDEST ISZERO PUSH2 0x117F JUMPI PUSH1 0x0 DUP13 DUP13 DUP13 DUP5 DUP2 DUP2 LT PUSH2 0x1043 JUMPI PUSH2 0x1043 PUSH2 0x1BFA JUMP JUMPDEST SWAP1 POP PUSH1 0x20 MUL ADD PUSH1 0x20 DUP2 ADD SWAP1 PUSH2 0x1058 SWAP2 SWAP1 PUSH2 0x1C10 JUMP JUMPDEST PUSH1 0x40 MLOAD PUSH1 0x20 ADD PUSH2 0x1069 SWAP3 SWAP2 SWAP1 PUSH2 0x1C2B JUMP JUMPDEST PUSH1 0x40 DUP1 MLOAD PUSH1 0x1F NOT DUP2 DUP5 SUB ADD DUP2 MSTORE SWAP2 DUP2 MSTORE DUP2 MLOAD PUSH1 0x20 SWAP3 DUP4 ADD KECCAK256 PUSH1 0x0 DUP2 DUP2 MSTORE PUSH1 0x1 SWAP1 SWAP4 MSTORE SWAP1 DUP3 KECCAK256 SWAP1 SWAP3 POP SWAP1 JUMPDEST DUP2 SLOAD DUP2 LT DUP1 ISZERO PUSH2 0x10A2 JUMPI POP DUP8 DUP6 LT JUMPDEST ISZERO PUSH2 0x1169 JUMPI DUP12 DUP7 LT PUSH2 0x1149 JUMPI DUP2 DUP2 DUP2 SLOAD DUP2 LT PUSH2 0x10C0 JUMPI PUSH2 0x10C0 PUSH2 0x1BFA JUMP JUMPDEST PUSH1 0x0 SWAP2 DUP3 MSTORE PUSH1 0x20 SWAP2 DUP3 SWAP1 KECCAK256 PUSH1 0x40 DUP1 MLOAD PUSH1 0x80 DUP2 ADD DUP3 MSTORE PUSH1 0x3 SWAP1 SWAP4 MUL SWAP1 SWAP2 ADD DUP1 SLOAD PUSH1 0x1 PUSH1 0x1 PUSH1 0x60 SHL SUB DUP2 AND DUP5 MSTORE PUSH1 0x1 PUSH1 0x1 PUSH1 0xA0 SHL SUB PUSH1 0x1 PUSH1 0x60 SHL SWAP1 SWAP2 DIV DUP2 AND SWAP5 DUP5 ADD SWAP5 SWAP1 SWAP5 MSTORE PUSH1 0x1 DUP2 ADD SLOAD SWAP1 SWAP4 AND SWAP1 DUP3 ADD MSTORE PUSH1 0x2 SWAP1 SWAP2 ADD SLOAD PUSH1 0x60 DUP3 ADD MSTORE DUP8 MLOAD DUP9 SWAP1 DUP8 SWAP1 DUP2 LT PUSH2 0x112F JUMPI PUSH2 0x112F PUSH2 0x1BFA JUMP JUMPDEST PUSH1 0x20 MUL PUSH1 0x20 ADD ADD DUP2 SWAP1 MSTORE POP DUP5 DUP1 PUSH2 0x1145 SWAP1 PUSH2 0x1C74 JUMP JUMPDEST SWAP6 POP POP JUMPDEST DUP6 PUSH2 0x1153 DUP2 PUSH2 0x1C74 JUMP JUMPDEST SWAP7 POP POP DUP1 DUP1 PUSH2 0x1161 SWAP1 PUSH2 0x1C74 JUMP JUMPDEST SWAP2 POP POP PUSH2 0x1093 JUMP JUMPDEST POP POP POP DUP1 DUP1 PUSH2 0x1177 SWAP1 PUSH2 0x1C74 JUMP JUMPDEST SWAP2 POP POP PUSH2 0x101B JUMP JUMPDEST POP SWAP2 SWAP11 SWAP10 POP POP POP POP POP POP POP POP POP POP JUMP JUMPDEST PUSH1 0x0 SWAP2 DUP3 MSTORE PUSH1 0x20 DUP3 DUP2 MSTORE PUSH1 0x40 DUP1 DUP5 KECCAK256 PUSH1 0x1 PUSH1 0x1 PUSH1 0xA0 SHL SUB SWAP4 SWAP1 SWAP4 AND DUP5 MSTORE SWAP2 SWAP1 MSTORE SWAP1 KECCAK256 SLOAD PUSH1 0xFF AND SWAP1 JUMP JUMPDEST PUSH1 0x60 PUSH1 0x0 DUP5 PUSH1 0x1 PUSH1 0x1 PUSH1 0x40 SHL SUB DUP2 GT ISZERO PUSH2 0x11D4 JUMPI PUSH2 0x11D4 PUSH2 0x1C8D JUMP JUMPDEST PUSH1 0x40 MLOAD SWAP1 DUP1 DUP3 MSTORE DUP1 PUSH1 0x20 MUL PUSH1 0x20 ADD DUP3 ADD PUSH1 0x40 MSTORE DUP1 ISZERO PUSH2 0x11FD JUMPI DUP2 PUSH1 0x20 ADD PUSH1 0x20 DUP3 MUL DUP1 CALLDATASIZE DUP4 CALLDATACOPY ADD SWAP1 POP JUMPDEST POP SWAP1 POP PUSH1 0x0 JUMPDEST DUP6 DUP2 LT ISZERO PUSH2 0xCD0 JUMPI PUSH1 0x0 JUMPDEST DUP5 DUP2 LT ISZERO PUSH2 0x12D2 JUMPI PUSH1 0x0 DUP9 DUP9 DUP5 DUP2 DUP2 LT PUSH2 0x122A JUMPI PUSH2 0x122A PUSH2 0x1BFA JUMP JUMPDEST SWAP1 POP PUSH1 0x20 MUL ADD CALLDATALOAD DUP8 DUP8 DUP5 DUP2 DUP2 LT PUSH2 0x1243 JUMPI PUSH2 0x1243 PUSH2 0x1BFA JUMP JUMPDEST SWAP1 POP PUSH1 0x20 MUL ADD PUSH1 0x20 DUP2 ADD SWAP1 PUSH2 0x1258 SWAP2 SWAP1 PUSH2 0x1C10 JUMP JUMPDEST PUSH1 0x40 MLOAD PUSH1 0x20 ADD PUSH2 0x1269 SWAP3 SWAP2 SWAP1 PUSH2 0x1C2B JUMP JUMPDEST PUSH1 0x40 MLOAD PUSH1 0x20 DUP2 DUP4 SUB SUB DUP2 MSTORE SWAP1 PUSH1 0x40 MSTORE DUP1 MLOAD SWAP1 PUSH1 0x20 ADD KECCAK256 SWAP1 POP PUSH1 0x2 PUSH1 0x0 DUP3 DUP2 MSTORE PUSH1 0x20 ADD SWAP1 DUP2 MSTORE PUSH1 0x20 ADD PUSH1 0x0 KECCAK256 SLOAD DUP5 DUP5 DUP2 MLOAD DUP2 LT PUSH2 0x12A7 JUMPI PUSH2 0x12A7 PUSH2 0x1BFA JUMP JUMPDEST PUSH1 0x20 MUL PUSH1 0x20 ADD ADD DUP2 DUP2 MLOAD PUSH2 0x12BB SWAP2 SWAP1 PUSH2 0x1C61 JUMP JUMPDEST SWAP1 MSTORE POP DUP2 SWAP1 POP PUSH2 0x12CA DUP2 PUSH2 0x1C74 JUMP JUMPDEST SWAP2 POP POP PUSH2 0x120E JUMP JUMPDEST POP DUP1 PUSH2 0x12DD DUP2 PUSH2 0x1C74 JUMP JUMPDEST SWAP2 POP POP PUSH2 0x1203 JUMP JUMPDEST PUSH1 0x60 DUP4 DUP3 EQ PUSH2 0x132F JUMPI PUSH1 0x40 MLOAD PUSH3 0x461BCD PUSH1 0xE5 SHL DUP2 MSTORE PUSH1 0x20 PUSH1 0x4 DUP3 ADD MSTORE PUSH1 0x16 PUSH1 0x24 DUP3 ADD MSTORE PUSH22 0x82E4E4C2F2E640D8CADCCEE8D040DAD2E6DAC2E8C6D PUSH1 0x53 SHL PUSH1 0x44 DUP3 ADD MSTORE PUSH1 0x64 ADD PUSH2 0x809 JUMP JUMPDEST PUSH1 0x0 DUP5 PUSH1 0x1 PUSH1 0x1 PUSH1 0x40 SHL SUB DUP2 GT ISZERO PUSH2 0x1349 JUMPI PUSH2 0x1349 PUSH2 0x1C8D JUMP JUMPDEST PUSH1 0x40 MLOAD SWAP1 DUP1 DUP3 MSTORE DUP1 PUSH1 0x20 MUL PUSH1 0x20 ADD DUP3 ADD PUSH1 0x40 MSTORE DUP1 ISZERO PUSH2 0x1372 JUMPI DUP2 PUSH1 0x20 ADD PUSH1 0x20 DUP3 MUL DUP1 CALLDATASIZE DUP4 CALLDATACOPY ADD SWAP1 POP JUMPDEST POP SWAP1 POP PUSH1 0x0 JUMPDEST DUP6 DUP2 LT ISZERO PUSH2 0x14A5 JUMPI PUSH1 0x0 JUMPDEST DUP6 DUP6 DUP4 DUP2 DUP2 LT PUSH2 0x1395 JUMPI PUSH2 0x1395 PUSH2 0x1BFA JUMP JUMPDEST SWAP1 POP PUSH1 0x20 MUL DUP2 ADD SWAP1 PUSH2 0x13A7 SWAP2 SWAP1 PUSH2 0x1D16 JUMP JUMPDEST SWAP1 POP DUP2 LT ISZERO PUSH2 0x1492 JUMPI PUSH1 0x0 DUP11 DUP11 DUP11 DUP11 DUP7 DUP2 DUP2 LT PUSH2 0x13C6 JUMPI PUSH2 0x13C6 PUSH2 0x1BFA JUMP JUMPDEST SWAP1 POP PUSH1 0x20 MUL ADD CALLDATALOAD DUP10 DUP10 DUP8 DUP2 DUP2 LT PUSH2 0x13DF JUMPI PUSH2 0x13DF PUSH2 0x1BFA JUMP JUMPDEST SWAP1 POP PUSH1 0x20 MUL DUP2 ADD SWAP1 PUSH2 0x13F1 SWAP2 SWAP1 PUSH2 0x1D16 JUMP JUMPDEST DUP7 DUP2 DUP2 LT PUSH2 0x1401 JUMPI PUSH2 0x1401 PUSH2 0x1BFA JUMP JUMPDEST SWAP1 POP PUSH1 0x20 MUL ADD PUSH1 0x20 DUP2 ADD SWAP1 PUSH2 0x1416 SWAP2 SWAP1 PUSH2 0x1C10 JUMP JUMPDEST PUSH1 0x40 MLOAD PUSH1 0x20 ADD PUSH2 0x1429 SWAP5 SWAP4 SWAP3 SWAP2 SWAP1 PUSH2 0x1CEF JUMP JUMPDEST PUSH1 0x40 MLOAD PUSH1 0x20 DUP2 DUP4 SUB SUB DUP2 MSTORE SWAP1 PUSH1 0x40 MSTORE DUP1 MLOAD SWAP1 PUSH1 0x20 ADD KECCAK256 SWAP1 POP PUSH1 0x3 PUSH1 0x0 DUP3 DUP2 MSTORE PUSH1 0x20 ADD SWAP1 DUP2 MSTORE PUSH1 0x20 ADD PUSH1 0x0 KECCAK256 SLOAD DUP5 DUP5 DUP2 MLOAD DUP2 LT PUSH2 0x1467 JUMPI PUSH2 0x1467 PUSH2 0x1BFA JUMP JUMPDEST PUSH1 0x20 MUL PUSH1 0x20 ADD ADD DUP2 DUP2 MLOAD PUSH2 0x147B SWAP2 SWAP1 PUSH2 0x1C61 JUMP JUMPDEST SWAP1 MSTORE POP DUP2 SWAP1 POP PUSH2 0x148A DUP2 PUSH2 0x1C74 JUMP JUMPDEST SWAP2 POP POP PUSH2 0x1383 JUMP JUMPDEST POP DUP1 PUSH2 0x149D DUP2 PUSH2 0x1C74 JUMP JUMPDEST SWAP2 POP POP PUSH2 0x1378 JUMP JUMPDEST POP SWAP8 SWAP7 POP POP POP POP POP POP POP JUMP JUMPDEST PUSH1 0x0 DUP1 DUP1 JUMPDEST DUP4 DUP2 LT ISZERO PUSH2 0x1545 JUMPI PUSH1 0x0 DUP9 DUP9 DUP9 DUP9 DUP9 DUP7 DUP2 DUP2 LT PUSH2 0x14D5 JUMPI PUSH2 0x14D5 PUSH2 0x1BFA JUMP JUMPDEST SWAP1 POP PUSH1 0x20 MUL ADD PUSH1 0x20 DUP2 ADD SWAP1 PUSH2 0x14EA SWAP2 SWAP1 PUSH2 0x1C10 JUMP JUMPDEST PUSH1 0x40 MLOAD PUSH1 0x20 ADD PUSH2 0x14FD SWAP5 SWAP4 SWAP3 SWAP2 SWAP1 PUSH2 0x1CEF JUMP JUMPDEST PUSH1 0x40 DUP1 MLOAD PUSH1 0x1F NOT DUP2 DUP5 SUB ADD DUP2 MSTORE SWAP2 DUP2 MSTORE DUP2 MLOAD PUSH1 0x20 SWAP3 DUP4 ADD KECCAK256 PUSH1 0x0 DUP2 DUP2 MSTORE PUSH1 0x3 SWAP1 SWAP4 MSTORE SWAP2 KECCAK256 SLOAD SWAP1 SWAP2 POP PUSH2 0x152F SWAP1 DUP5 PUSH2 0x1C61 JUMP JUMPDEST SWAP3 POP POP DUP1 DUP1 PUSH2 0x153D SWAP1 PUSH2 0x1C74 JUMP JUMPDEST SWAP2 POP POP PUSH2 0x14B6 JUMP JUMPDEST POP SWAP7 SWAP6 POP POP POP POP POP POP JUMP JUMPDEST PUSH1 0x0 DUP3 DUP2 MSTORE PUSH1 0x20 DUP2 SWAP1 MSTORE PUSH1 0x40 SWAP1 KECCAK256 PUSH1 0x1 ADD SLOAD PUSH2 0x156B DUP2 PUSH2 0x16A6 JUMP JUMPDEST PUSH2 0x785 DUP4 DUP4 PUSH2 0x1745 JUMP JUMPDEST PUSH1 0x60 PUSH1 0x0 DUP5 PUSH1 0x1 PUSH1 0x1 PUSH1 0x40 SHL SUB DUP2 GT ISZERO PUSH2 0x1591 JUMPI PUSH2 0x1591 PUSH2 0x1C8D JUMP JUMPDEST PUSH1 0x40 MLOAD SWAP1 DUP1 DUP3 MSTORE DUP1 PUSH1 0x20 MUL PUSH1 0x20 ADD DUP3 ADD PUSH1 0x40 MSTORE DUP1 ISZERO PUSH2 0x15BA JUMPI DUP2 PUSH1 0x20 ADD PUSH1 0x20 DUP3 MUL DUP1 CALLDATASIZE DUP4 CALLDATACOPY ADD SWAP1 POP JUMPDEST POP SWAP1 POP PUSH1 0x0 JUMPDEST DUP6 DUP2 LT ISZERO PUSH2 0x14A5 JUMPI PUSH1 0x0 JUMPDEST DUP5 DUP2 LT ISZERO PUSH2 0x1693 JUMPI PUSH1 0x0 DUP11 DUP11 DUP11 DUP11 DUP7 DUP2 DUP2 LT PUSH2 0x15E9 JUMPI PUSH2 0x15E9 PUSH2 0x1BFA JUMP JUMPDEST SWAP1 POP PUSH1 0x20 MUL ADD CALLDATALOAD DUP10 DUP10 DUP7 DUP2 DUP2 LT PUSH2 0x1602 JUMPI PUSH2 0x1602 PUSH2 0x1BFA JUMP JUMPDEST SWAP1 POP PUSH1 0x20 MUL ADD PUSH1 0x20 DUP2 ADD SWAP1 PUSH2 0x1617 SWAP2 SWAP1 PUSH2 0x1C10 JUMP JUMPDEST PUSH1 0x40 MLOAD PUSH1 0x20 ADD PUSH2 0x162A SWAP5 SWAP4 SWAP3 SWAP2 SWAP1 PUSH2 0x1CEF JUMP JUMPDEST PUSH1 0x40 MLOAD PUSH1 0x20 DUP2 DUP4 SUB SUB DUP2 MSTORE SWAP1 PUSH1 0x40 MSTORE DUP1 MLOAD SWAP1 PUSH1 0x20 ADD KECCAK256 SWAP1 POP PUSH1 0x3 PUSH1 0x0 DUP3 DUP2 MSTORE PUSH1 0x20 ADD SWAP1 DUP2 MSTORE PUSH1 0x20 ADD PUSH1 0x0 KECCAK256 SLOAD DUP5 DUP5 DUP2 MLOAD DUP2 LT PUSH2 0x1668 JUMPI PUSH2 0x1668 PUSH2 0x1BFA JUMP JUMPDEST PUSH1 0x20 MUL PUSH1 0x20 ADD ADD DUP2 DUP2 MLOAD PUSH2 0x167C SWAP2 SWAP1 PUSH2 0x1C61 JUMP JUMPDEST SWAP1 MSTORE POP DUP2 SWAP1 POP PUSH2 0x168B DUP2 PUSH2 0x1C74 JUMP JUMPDEST SWAP2 POP POP PUSH2 0x15CB JUMP JUMPDEST POP DUP1 PUSH2 0x169E DUP2 PUSH2 0x1C74 JUMP JUMPDEST SWAP2 POP POP PUSH2 0x15C0 JUMP JUMPDEST PUSH2 0x16B0 DUP2 CALLER PUSH2 0x17B0 JUMP JUMPDEST POP JUMP JUMPDEST PUSH1 0x0 PUSH2 0x16BF DUP4 DUP4 PUSH2 0x118F JUMP JUMPDEST PUSH2 0x173D JUMPI PUSH1 0x0 DUP4 DUP2 MSTORE PUSH1 0x20 DUP2 DUP2 MSTORE PUSH1 0x40 DUP1 DUP4 KECCAK256 PUSH1 0x1 PUSH1 0x1 PUSH1 0xA0 SHL SUB DUP7 AND DUP5 MSTORE SWAP1 SWAP2 MSTORE SWAP1 KECCAK256 DUP1 SLOAD PUSH1 0xFF NOT AND PUSH1 0x1 OR SWAP1 SSTORE PUSH2 0x16F5 CALLER SWAP1 JUMP JUMPDEST PUSH1 0x1 PUSH1 0x1 PUSH1 0xA0 SHL SUB AND DUP3 PUSH1 0x1 PUSH1 0x1 PUSH1 0xA0 SHL SUB AND DUP5 PUSH32 0x2F8788117E7EFF1D82E926EC794901D17C78024A50270940304540A733656F0D PUSH1 0x40 MLOAD PUSH1 0x40 MLOAD DUP1 SWAP2 SUB SWAP1 LOG4 POP PUSH1 0x1 PUSH2 0x509 JUMP JUMPDEST POP PUSH1 0x0 PUSH2 0x509 JUMP JUMPDEST PUSH1 0x0 PUSH2 0x1751 DUP4 DUP4 PUSH2 0x118F JUMP JUMPDEST ISZERO PUSH2 0x173D JUMPI PUSH1 0x0 DUP4 DUP2 MSTORE PUSH1 0x20 DUP2 DUP2 MSTORE PUSH1 0x40 DUP1 DUP4 KECCAK256 PUSH1 0x1 PUSH1 0x1 PUSH1 0xA0 SHL SUB DUP7 AND DUP1 DUP6 MSTORE SWAP3 MSTORE DUP1 DUP4 KECCAK256 DUP1 SLOAD PUSH1 0xFF NOT AND SWAP1 SSTORE MLOAD CALLER SWAP3 DUP7 SWAP2 PUSH32 0xF6391F5C32D9C69D2A47EA670B442974B53935D1EDC7FD64EB21E047A839171B SWAP2 SWAP1 LOG4 POP PUSH1 0x1 PUSH2 0x509 JUMP JUMPDEST PUSH2 0x17BA DUP3 DUP3 PUSH2 0x118F JUMP JUMPDEST PUSH2 0x17E9 JUMPI PUSH1 0x40 MLOAD PUSH4 0xE2517D3F PUSH1 0xE0 SHL DUP2 MSTORE PUSH1 0x1 PUSH1 0x1 PUSH1 0xA0 SHL SUB DUP3 AND PUSH1 0x4 DUP3 ADD MSTORE PUSH1 0x24 DUP2 ADD DUP4 SWAP1 MSTORE PUSH1 0x44 ADD PUSH2 0x809 JUMP JUMPDEST POP POP JUMP JUMPDEST PUSH1 0x0 PUSH1 0x20 DUP3 DUP5 SUB SLT ISZERO PUSH2 0x17FF JUMPI PUSH1 0x0 DUP1 REVERT JUMPDEST DUP2 CALLDATALOAD PUSH1 0x1 PUSH1 0x1 PUSH1 0xE0 SHL SUB NOT DUP2 AND DUP2 EQ PUSH2 0x1817 JUMPI PUSH1 0x0 DUP1 REVERT JUMPDEST SWAP4 SWAP3 POP POP POP JUMP JUMPDEST PUSH1 0x0 DUP1 DUP4 PUSH1 0x1F DUP5 ADD SLT PUSH2 0x1830 JUMPI PUSH1 0x0 DUP1 REVERT JUMPDEST POP DUP2 CALLDATALOAD PUSH1 0x1 PUSH1 0x1 PUSH1 0x40 SHL SUB DUP2 GT ISZERO PUSH2 0x1847 JUMPI PUSH1 0x0 DUP1 REVERT JUMPDEST PUSH1 0x20 DUP4 ADD SWAP2 POP DUP4 PUSH1 0x20 DUP3 PUSH1 0x5 SHL DUP6 ADD ADD GT ISZERO PUSH2 0x1862 JUMPI PUSH1 0x0 DUP1 REVERT JUMPDEST SWAP3 POP SWAP3 SWAP1 POP JUMP JUMPDEST PUSH1 0x0 DUP1 PUSH1 0x0 DUP1 PUSH1 0x0 PUSH1 0x80 DUP7 DUP9 SUB SLT ISZERO PUSH2 0x1881 JUMPI PUSH1 0x0 DUP1 REVERT JUMPDEST DUP6 CALLDATALOAD SWAP5 POP PUSH1 0x20 DUP7 ADD CALLDATALOAD PUSH1 0x1 PUSH1 0x1 PUSH1 0x40 SHL SUB DUP2 GT ISZERO PUSH2 0x189E JUMPI PUSH1 0x0 DUP1 REVERT JUMPDEST PUSH2 0x18AA DUP9 DUP3 DUP10 ADD PUSH2 0x181E JUMP JUMPDEST SWAP7 SWAP10 SWAP1 SWAP9 POP SWAP6 SWAP7 PUSH1 0x40 DUP2 ADD CALLDATALOAD SWAP7 PUSH1 0x60 SWAP1 SWAP2 ADD CALLDATALOAD SWAP6 POP SWAP4 POP POP POP POP JUMP JUMPDEST PUSH1 0x20 DUP1 DUP3 MSTORE DUP3 MLOAD DUP3 DUP3 ADD DUP2 SWAP1 MSTORE PUSH1 0x0 SWAP2 SWAP1 DUP5 DUP3 ADD SWAP1 PUSH1 0x40 DUP6 ADD SWAP1 DUP5 JUMPDEST DUP2 DUP2 LT ISZERO PUSH2 0x18FE JUMPI DUP4 MLOAD DUP4 MSTORE SWAP3 DUP5 ADD SWAP3 SWAP2 DUP5 ADD SWAP2 PUSH1 0x1 ADD PUSH2 0x18E2 JUMP JUMPDEST POP SWAP1 SWAP7 SWAP6 POP POP POP POP POP POP JUMP JUMPDEST PUSH1 0x0 PUSH1 0x20 DUP3 DUP5 SUB SLT ISZERO PUSH2 0x191C JUMPI PUSH1 0x0 DUP1 REVERT JUMPDEST POP CALLDATALOAD SWAP2 SWAP1 POP JUMP JUMPDEST DUP1 CALLDATALOAD PUSH1 0x1 PUSH1 0x1 PUSH1 0xA0 SHL SUB DUP2 AND DUP2 EQ PUSH2 0x193A JUMPI PUSH1 0x0 DUP1 REVERT JUMPDEST SWAP2 SWAP1 POP JUMP JUMPDEST PUSH1 0x0 DUP1 PUSH1 0x40 DUP4 DUP6 SUB SLT ISZERO PUSH2 0x1952 JUMPI PUSH1 0x0 DUP1 REVERT JUMPDEST DUP3 CALLDATALOAD SWAP2 POP PUSH2 0x1962 PUSH1 0x20 DUP5 ADD PUSH2 0x1923 JUMP JUMPDEST SWAP1 POP SWAP3 POP SWAP3 SWAP1 POP JUMP JUMPDEST PUSH1 0x0 DUP1 PUSH1 0x0 DUP1 PUSH1 0x0 PUSH1 0xA0 DUP7 DUP9 SUB SLT ISZERO PUSH2 0x1983 JUMPI PUSH1 0x0 DUP1 REVERT JUMPDEST PUSH2 0x198C DUP7 PUSH2 0x1923 JUMP JUMPDEST SWAP5 POP PUSH1 0x20 DUP7 ADD CALLDATALOAD SWAP4 POP PUSH2 0x19A1 PUSH1 0x40 DUP8 ADD PUSH2 0x1923 JUMP JUMPDEST SWAP5 SWAP8 SWAP4 SWAP7 POP SWAP4 SWAP5 PUSH1 0x60 DUP2 ADD CALLDATALOAD SWAP5 POP PUSH1 0x80 ADD CALLDATALOAD SWAP3 SWAP2 POP POP JUMP JUMPDEST PUSH1 0x0 DUP1 PUSH1 0x0 DUP1 PUSH1 0x40 DUP6 DUP8 SUB SLT ISZERO PUSH2 0x19CF JUMPI PUSH1 0x0 DUP1 REVERT JUMPDEST DUP5 CALLDATALOAD PUSH1 0x1 PUSH1 0x1 PUSH1 0x40 SHL SUB DUP1 DUP3 GT ISZERO PUSH2 0x19E6 JUMPI PUSH1 0x0 DUP1 REVERT JUMPDEST PUSH2 0x19F2 DUP9 DUP4 DUP10 ADD PUSH2 0x181E JUMP JUMPDEST SWAP1 SWAP7 POP SWAP5 POP PUSH1 0x20 DUP8 ADD CALLDATALOAD SWAP2 POP DUP1 DUP3 GT ISZERO PUSH2 0x1A0B JUMPI PUSH1 0x0 DUP1 REVERT JUMPDEST POP PUSH2 0x1A18 DUP8 DUP3 DUP9 ADD PUSH2 0x181E JUMP JUMPDEST SWAP6 SWAP9 SWAP5 SWAP8 POP SWAP6 POP POP POP POP JUMP JUMPDEST PUSH1 0x0 DUP1 PUSH1 0x0 PUSH1 0x40 DUP5 DUP7 SUB SLT ISZERO PUSH2 0x1A39 JUMPI PUSH1 0x0 DUP1 REVERT JUMPDEST DUP4 CALLDATALOAD SWAP3 POP PUSH1 0x20 DUP5 ADD CALLDATALOAD PUSH1 0x1 PUSH1 0x1 PUSH1 0x40 SHL SUB DUP2 GT ISZERO PUSH2 0x1A56 JUMPI PUSH1 0x0 DUP1 REVERT JUMPDEST PUSH2 0x1A62 DUP7 DUP3 DUP8 ADD PUSH2 0x181E JUMP JUMPDEST SWAP5 SWAP8 SWAP1 SWAP7 POP SWAP4 SWAP5 POP POP POP POP JUMP JUMPDEST PUSH1 0x0 DUP1 PUSH1 0x40 DUP4 DUP6 SUB SLT ISZERO PUSH2 0x1A82 JUMPI PUSH1 0x0 DUP1 REVERT JUMPDEST POP POP DUP1 CALLDATALOAD SWAP3 PUSH1 0x20 SWAP1 SWAP2 ADD CALLDATALOAD SWAP2 POP JUMP JUMPDEST PUSH1 0x20 DUP1 DUP3 MSTORE DUP3 MLOAD DUP3 DUP3 ADD DUP2 SWAP1 MSTORE PUSH1 0x0 SWAP2 SWAP1 PUSH1 0x40 SWAP1 DUP2 DUP6 ADD SWAP1 DUP7 DUP5 ADD DUP6 JUMPDEST DUP3 DUP2 LT ISZERO PUSH2 0x1AFD JUMPI DUP2 MLOAD DUP1 MLOAD PUSH1 0x1 PUSH1 0x1 PUSH1 0x60 SHL SUB AND DUP6 MSTORE DUP7 DUP2 ADD MLOAD PUSH1 0x1 PUSH1 0x1 PUSH1 0xA0 SHL SUB SWAP1 DUP2 AND DUP9 DUP8 ADD MSTORE DUP7 DUP3 ADD MLOAD AND DUP7 DUP7 ADD MSTORE PUSH1 0x60 SWAP1 DUP2 ADD MLOAD SWAP1 DUP6 ADD MSTORE PUSH1 0x80 SWAP1 SWAP4 ADD SWAP3 SWAP1 DUP6 ADD SWAP1 PUSH1 0x1 ADD PUSH2 0x1AAE JUMP JUMPDEST POP SWAP2 SWAP8 SWAP7 POP POP POP POP POP POP POP JUMP JUMPDEST PUSH1 0x0 DUP1 PUSH1 0x0 DUP1 PUSH1 0x0 DUP1 PUSH1 0x80 DUP8 DUP10 SUB SLT ISZERO PUSH2 0x1B23 JUMPI PUSH1 0x0 DUP1 REVERT JUMPDEST DUP7 CALLDATALOAD SWAP6 POP PUSH2 0x1B33 PUSH1 0x20 DUP9 ADD PUSH2 0x1923 JUMP JUMPDEST SWAP5 POP PUSH1 0x40 DUP8 ADD CALLDATALOAD PUSH1 0x1 PUSH1 0x1 PUSH1 0x40 SHL SUB DUP1 DUP3 GT ISZERO PUSH2 0x1B4F JUMPI PUSH1 0x0 DUP1 REVERT JUMPDEST PUSH2 0x1B5B DUP11 DUP4 DUP12 ADD PUSH2 0x181E JUMP JUMPDEST SWAP1 SWAP7 POP SWAP5 POP PUSH1 0x60 DUP10 ADD CALLDATALOAD SWAP2 POP DUP1 DUP3 GT ISZERO PUSH2 0x1B74 JUMPI PUSH1 0x0 DUP1 REVERT JUMPDEST POP PUSH2 0x1B81 DUP10 DUP3 DUP11 ADD PUSH2 0x181E JUMP JUMPDEST SWAP8 SWAP11 SWAP7 SWAP10 POP SWAP5 SWAP8 POP SWAP3 SWAP6 SWAP4 SWAP5 SWAP3 POP POP POP JUMP JUMPDEST PUSH1 0x0 DUP1 PUSH1 0x0 DUP1 PUSH1 0x0 PUSH1 0x80 DUP7 DUP9 SUB SLT ISZERO PUSH2 0x1BAB JUMPI PUSH1 0x0 DUP1 REVERT JUMPDEST DUP6 CALLDATALOAD SWAP5 POP PUSH2 0x1BBB PUSH1 0x20 DUP8 ADD PUSH2 0x1923 JUMP JUMPDEST SWAP4 POP PUSH1 0x40 DUP7 ADD CALLDATALOAD SWAP3 POP PUSH1 0x60 DUP7 ADD CALLDATALOAD PUSH1 0x1 PUSH1 0x1 PUSH1 0x40 SHL SUB DUP2 GT ISZERO PUSH2 0x1BDD JUMPI PUSH1 0x0 DUP1 REVERT JUMPDEST PUSH2 0x1BE9 DUP9 DUP3 DUP10 ADD PUSH2 0x181E JUMP JUMPDEST SWAP7 SWAP10 SWAP6 SWAP9 POP SWAP4 SWAP7 POP SWAP3 SWAP5 SWAP4 SWAP3 POP POP POP JUMP JUMPDEST PUSH4 0x4E487B71 PUSH1 0xE0 SHL PUSH1 0x0 MSTORE PUSH1 0x32 PUSH1 0x4 MSTORE PUSH1 0x24 PUSH1 0x0 REVERT JUMPDEST PUSH1 0x0 PUSH1 0x20 DUP3 DUP5 SUB SLT ISZERO PUSH2 0x1C22 JUMPI PUSH1 0x0 DUP1 REVERT JUMPDEST PUSH2 0x1817 DUP3 PUSH2 0x1923 JUMP JUMPDEST SWAP2 DUP3 MSTORE PUSH1 0x60 SHL PUSH12 0xFFFFFFFFFFFFFFFFFFFFFFFF NOT AND PUSH1 0x20 DUP3 ADD MSTORE PUSH1 0x34 ADD SWAP1 JUMP JUMPDEST PUSH4 0x4E487B71 PUSH1 0xE0 SHL PUSH1 0x0 MSTORE PUSH1 0x11 PUSH1 0x4 MSTORE PUSH1 0x24 PUSH1 0x0 REVERT JUMPDEST DUP1 DUP3 ADD DUP1 DUP3 GT ISZERO PUSH2 0x509 JUMPI PUSH2 0x509 PUSH2 0x1C4B JUMP JUMPDEST PUSH1 0x0 PUSH1 0x1 DUP3 ADD PUSH2 0x1C86 JUMPI PUSH2 0x1C86 PUSH2 0x1C4B JUMP JUMPDEST POP PUSH1 0x1 ADD SWAP1 JUMP JUMPDEST PUSH4 0x4E487B71 PUSH1 0xE0 SHL PUSH1 0x0 MSTORE PUSH1 0x41 PUSH1 0x4 MSTORE PUSH1 0x24 PUSH1 0x0 REVERT JUMPDEST DUP2 DUP2 SUB DUP2 DUP2 GT ISZERO PUSH2 0x509 JUMPI PUSH2 0x509 PUSH2 0x1C4B JUMP JUMPDEST DUP1 DUP3 MUL DUP2 ISZERO DUP3 DUP3 DIV DUP5 EQ OR PUSH2 0x509 JUMPI PUSH2 0x509 PUSH2 0x1C4B JUMP JUMPDEST PUSH1 0x0 DUP3 PUSH2 0x1CEA JUMPI PUSH4 0x4E487B71 PUSH1 0xE0 SHL PUSH1 0x0 MSTORE PUSH1 0x12 PUSH1 0x4 MSTORE PUSH1 0x24 PUSH1 0x0 REVERT JUMPDEST POP DIV SWAP1 JUMP JUMPDEST SWAP4 DUP5 MSTORE PUSH1 0x1 PUSH1 0x1 PUSH1 0xA0 SHL SUB SWAP3 DUP4 AND PUSH1 0x20 DUP6 ADD MSTORE PUSH1 0x40 DUP5 ADD SWAP2 SWAP1 SWAP2 MSTORE AND PUSH1 0x60 DUP3 ADD MSTORE PUSH1 0x80 ADD SWAP1 JUMP JUMPDEST PUSH1 0x0 DUP1 DUP4 CALLDATALOAD PUSH1 0x1E NOT DUP5 CALLDATASIZE SUB ADD DUP2 SLT PUSH2 0x1D2D JUMPI PUSH1 0x0 DUP1 REVERT JUMPDEST DUP4 ADD DUP1 CALLDATALOAD SWAP2 POP PUSH1 0x1 PUSH1 0x1 PUSH1 0x40 SHL SUB DUP3 GT ISZERO PUSH2 0x1D47 JUMPI PUSH1 0x0 DUP1 REVERT JUMPDEST PUSH1 0x20 ADD SWAP2 POP PUSH1 0x5 DUP2 SWAP1 SHL CALLDATASIZE SUB DUP3 SGT ISZERO PUSH2 0x1862 JUMPI PUSH1 0x0 DUP1 REVERT INVALID LOG2 PUSH5 0x6970667358 0x22 SLT KECCAK256 0xB7 DUP3 DUP8 SLT SWAP3 0xE4 0xC7 0xB5 0xD7 SGT 0xB6 STATICCALL PUSH21 0xD21787ED8E5ACEF1C2D52A8C1BD2565C882F246473 PUSH16 0x6C634300081400330000000000000000 "},"gasEstimates":{"creation":{"codeDepositCost":"1514600","executionCost":"infinite","totalCost":"infinite"},"external":{"DEFAULT_ADMIN_ROLE()":"328","MODERATOR_ROLE()":"306","feePercent()":"2362","getRoleAdmin(bytes32)":"2515","getSenderTipsTotalAmount(bytes32,address,bytes32,address[])":"infinite","getSenderTipsTotalAmounts(bytes32,address,bytes32[],address[][])":"infinite","getSenderTipsTotalAmountsSameFeeRecipients(bytes32,address,bytes32[],address[])":"infinite","getTips(bytes32,address[],uint256,uint256)":"infinite","getTipsAmounts(bytes32,address[],uint256,uint256)":"infinite","getTipsTotalAmount(bytes32,address[])":"infinite","getTipsTotalAmounts(bytes32[],address[][])":"infinite","getTipsTotalAmountsSameFeeRecipients(bytes32[],address[])":"infinite","grantRole(bytes32,address)":"infinite","hasRole(bytes32,address)":"2762","minimumTipAmount()":"2385","renounceRole(bytes32,address)":"29157","revokeRole(bytes32,address)":"infinite","senderTipsTotalAmounts(bytes32)":"2570","setFeePercent(uint256)":"24811","setMinimumTipAmount(uint256)":"24839","supportsInterface(bytes4)":"450","tip(address,uint256,address,bytes32,bytes32)":"infinite","tips(bytes32,uint256)":"9106","tipsTotalAmounts(bytes32)":"2483"}},"methodIdentifiers":{"DEFAULT_ADMIN_ROLE()":"a217fddf","MODERATOR_ROLE()":"797669c9","feePercent()":"7fd6f15c","getRoleAdmin(bytes32)":"248a9ca3","getSenderTipsTotalAmount(bytes32,address,bytes32,address[])":"d3c4e4df","getSenderTipsTotalAmounts(bytes32,address,bytes32[],address[][])":"b73adf90","getSenderTipsTotalAmountsSameFeeRecipients(bytes32,address,bytes32[],address[])":"d9e4e44f","getTips(bytes32,address[],uint256,uint256)":"91d0e383","getTipsAmounts(bytes32,address[],uint256,uint256)":"07c01bf2","getTipsTotalAmount(bytes32,address[])":"6ebb2c99","getTipsTotalAmounts(bytes32[],address[][])":"513c038f","getTipsTotalAmountsSameFeeRecipients(bytes32[],address[])":"b3289b17","grantRole(bytes32,address)":"2f2ff15d","hasRole(bytes32,address)":"91d14854","minimumTipAmount()":"2a49d418","renounceRole(bytes32,address)":"36568abe","revokeRole(bytes32,address)":"d547741f","senderTipsTotalAmounts(bytes32)":"e49de283","setFeePercent(uint256)":"7ce3489b","setMinimumTipAmount(uint256)":"7ae31498","supportsInterface(bytes4)":"01ffc9a7","tip(address,uint256,address,bytes32,bytes32)":"44f14eb6","tips(bytes32,uint256)":"7bcdfa7a","tipsTotalAmounts(bytes32)":"4714516f"}},"storageLayout":{"storage":[{"astId":27,"contract":"contracts/PlebbitTippingV1.sol:PlebbitTippingV1","label":"_roles","offset":0,"slot":"0","type":"t_mapping(t_bytes32,t_struct(RoleData)22_storage)"},{"astId":468,"contract":"contracts/PlebbitTippingV1.sol:PlebbitTippingV1","label":"tips","offset":0,"slot":"1","type":"t_mapping(t_bytes32,t_array(t_struct(TipData)461_storage)dyn_storage)"},{"astId":473,"contract":"contracts/PlebbitTippingV1.sol:PlebbitTippingV1","label":"tipsTotalAmounts","offset":0,"slot":"2","type":"t_mapping(t_bytes32,t_uint256)"},{"astId":478,"contract":"contracts/PlebbitTippingV1.sol:PlebbitTippingV1","label":"senderTipsTotalAmounts","offset":0,"slot":"3","type":"t_mapping(t_bytes32,t_uint256)"},{"astId":481,"contract":"contracts/PlebbitTippingV1.sol:PlebbitTippingV1","label":"minimumTipAmount","offset":0,"slot":"4","type":"t_uint256"},{"astId":484,"contract":"contracts/PlebbitTippingV1.sol:PlebbitTippingV1","label":"feePercent","offset":0,"slot":"5","type":"t_uint256"}],"types":{"t_address":{"encoding":"inplace","label":"address","numberOfBytes":"20"},"t_array(t_struct(TipData)461_storage)dyn_storage":{"base":"t_struct(TipData)461_storage","encoding":"dynamic_array","label":"struct PlebbitTippingV1.TipData[]","numberOfBytes":"32"},"t_bool":{"encoding":"inplace","label":"bool","numberOfBytes":"1"},"t_bytes32":{"encoding":"inplace","label":"bytes32","numberOfBytes":"32"},"t_mapping(t_address,t_bool)":{"encoding":"mapping","key":"t_address","label":"mapping(address => bool)","numberOfBytes":"32","value":"t_bool"},"t_mapping(t_bytes32,t_array(t_struct(TipData)461_storage)dyn_storage)":{"encoding":"mapping","key":"t_bytes32","label":"mapping(bytes32 => struct PlebbitTippingV1.TipData[])","numberOfBytes":"32","value":"t_array(t_struct(TipData)461_storage)dyn_storage"},"t_mapping(t_bytes32,t_struct(RoleData)22_storage)":{"encoding":"mapping","key":"t_bytes32","label":"mapping(bytes32 => struct AccessControl.RoleData)","numberOfBytes":"32","value":"t_struct(RoleData)22_storage"},"t_mapping(t_bytes32,t_uint256)":{"encoding":"mapping","key":"t_bytes32","label":"mapping(bytes32 => uint256)","numberOfBytes":"32","value":"t_uint256"},"t_struct(RoleData)22_storage":{"encoding":"inplace","label":"struct AccessControl.RoleData","members":[{"astId":19,"contract":"contracts/PlebbitTippingV1.sol:PlebbitTippingV1","label":"hasRole","offset":0,"slot":"0","type":"t_mapping(t_address,t_bool)"},{"astId":21,"contract":"contracts/PlebbitTippingV1.sol:PlebbitTippingV1","label":"adminRole","offset":0,"slot":"1","type":"t_bytes32"}],"numberOfBytes":"64"},"t_struct(TipData)461_storage":{"encoding":"inplace","label":"struct PlebbitTippingV1.TipData","members":[{"astId":454,"contract":"contracts/PlebbitTippingV1.sol:PlebbitTippingV1","label":"amount","offset":0,"slot":"0","type":"t_uint96"},{"astId":456,"contract":"contracts/PlebbitTippingV1.sol:PlebbitTippingV1","label":"feeRecipient","offset":12,"slot":"0","type":"t_address"},{"astId":458,"contract":"contracts/PlebbitTippingV1.sol:PlebbitTippingV1","label":"sender","offset":0,"slot":"1","type":"t_address"},{"astId":460,"contract":"contracts/PlebbitTippingV1.sol:PlebbitTippingV1","label":"senderCommentCid","offset":0,"slot":"2","type":"t_bytes32"}],"numberOfBytes":"96"},"t_uint256":{"encoding":"inplace","label":"uint256","numberOfBytes":"32"},"t_uint96":{"encoding":"inplace","label":"uint96","numberOfBytes":"12"}}},"userdoc":{"events":{"Tip(address,address,uint256,address,bytes32,bytes32)":{"notice":"Emitted when a tip is sent."}},"kind":"user","methods":{"MODERATOR_ROLE()":{"notice":"Role identifier for moderators."},"constructor":{"notice":"Contract constructor."},"feePercent()":{"notice":"The fee percentage (between 1 and 20). Can be changed by a moderator."},"getSenderTipsTotalAmount(bytes32,address,bytes32,address[])":{"notice":"Get the total amount tipped by a sender for a given sender comment, recipient comment, and fee recipients."},"getSenderTipsTotalAmounts(bytes32,address,bytes32[],address[][])":{"notice":"Get the total amounts tipped by a sender for multiple recipient comments and fee recipients."},"getSenderTipsTotalAmountsSameFeeRecipients(bytes32,address,bytes32[],address[])":{"notice":"Get the total amounts tipped by a sender for multiple recipient comments, using the same fee recipients for each."},"getTips(bytes32,address[],uint256,uint256)":{"notice":"Get the TipData structs for a recipient comment and fee recipients, with pagination."},"getTipsAmounts(bytes32,address[],uint256,uint256)":{"notice":"Get the amounts of individual tips for a recipient comment and fee recipients, with pagination."},"getTipsTotalAmount(bytes32,address[])":{"notice":"Get the total amount tipped for a recipient comment and a list of fee recipients."},"getTipsTotalAmounts(bytes32[],address[][])":{"notice":"Get the total amounts tipped for multiple recipient comments and fee recipients."},"getTipsTotalAmountsSameFeeRecipients(bytes32[],address[])":{"notice":"Get the total amounts tipped for multiple recipient comments, using the same fee recipients for each."},"minimumTipAmount()":{"notice":"The minimum allowed tip amount (in wei). Can be changed by a moderator."},"senderTipsTotalAmounts(bytes32)":{"notice":"Maps (senderCommentCid, sender, recipientCommentCid, feeRecipient) to the total amount tipped by sender."},"setFeePercent(uint256)":{"notice":"Set the fee percentage."},"setMinimumTipAmount(uint256)":{"notice":"Set the minimum allowed tip amount."},"tip(address,uint256,address,bytes32,bytes32)":{"notice":"Send a tip to a recipient, with a portion going to a fee recipient."},"tips(bytes32,uint256)":{"notice":"Maps (recipientCommentCid, feeRecipient) to an array of tips."},"tipsTotalAmounts(bytes32)":{"notice":"Maps (recipientCommentCid, feeRecipient) to the total amount tipped."}},"notice":"A contract for tipping users with ETH, supporting fee recipients and comment-based tracking.","version":1}}}}